{
  "address": "0x0f9aBA7E95aBf661e1fE6eE8497EDB7Df3d25784",
  "abi": [
    {
      "inputs": [
        {
          "internalType": "string",
          "name": "_tokenName",
          "type": "string"
        },
        {
          "internalType": "string",
          "name": "_symbol",
          "type": "string"
        },
        {
          "internalType": "address",
          "name": "_eVlrContractAddress",
          "type": "address"
        },
        {
          "internalType": "address",
          "name": "_charityBagAddress",
          "type": "address"
        },
        {
          "internalType": "address",
          "name": "_distributorAddress",
          "type": "address"
        },
        {
          "internalType": "uint256",
          "name": "_stakingFee",
          "type": "uint256"
        },
        {
          "internalType": "uint256",
          "name": "_charityFee",
          "type": "uint256"
        },
        {
          "internalType": "uint256",
          "name": "_burnFee",
          "type": "uint256"
        }
      ],
      "stateMutability": "nonpayable",
      "type": "constructor"
    },
    {
      "anonymous": false,
      "inputs": [
        {
          "indexed": true,
          "internalType": "address",
          "name": "owner",
          "type": "address"
        },
        {
          "indexed": true,
          "internalType": "address",
          "name": "spender",
          "type": "address"
        },
        {
          "indexed": false,
          "internalType": "uint256",
          "name": "value",
          "type": "uint256"
        }
      ],
      "name": "Approval",
      "type": "event"
    },
    {
      "anonymous": false,
      "inputs": [
        {
          "indexed": true,
          "internalType": "address",
          "name": "from",
          "type": "address"
        },
        {
          "indexed": true,
          "internalType": "address",
          "name": "to",
          "type": "address"
        },
        {
          "indexed": false,
          "internalType": "uint256",
          "name": "value",
          "type": "uint256"
        }
      ],
      "name": "Transfer",
      "type": "event"
    },
    {
      "inputs": [
        {
          "internalType": "address",
          "name": "owner",
          "type": "address"
        },
        {
          "internalType": "address",
          "name": "spender",
          "type": "address"
        }
      ],
      "name": "allowance",
      "outputs": [
        {
          "internalType": "uint256",
          "name": "",
          "type": "uint256"
        }
      ],
      "stateMutability": "view",
      "type": "function"
    },
    {
      "inputs": [
        {
          "internalType": "address",
          "name": "spender",
          "type": "address"
        },
        {
          "internalType": "uint256",
          "name": "amount",
          "type": "uint256"
        }
      ],
      "name": "approve",
      "outputs": [
        {
          "internalType": "bool",
          "name": "",
          "type": "bool"
        }
      ],
      "stateMutability": "nonpayable",
      "type": "function"
    },
    {
      "inputs": [
        {
          "internalType": "address",
          "name": "account",
          "type": "address"
        }
      ],
      "name": "balanceOf",
      "outputs": [
        {
          "internalType": "uint256",
          "name": "",
          "type": "uint256"
        }
      ],
      "stateMutability": "view",
      "type": "function"
    },
    {
      "inputs": [],
      "name": "decimals",
      "outputs": [
        {
          "internalType": "uint8",
          "name": "",
          "type": "uint8"
        }
      ],
      "stateMutability": "view",
      "type": "function"
    },
    {
      "inputs": [
        {
          "internalType": "address",
          "name": "spender",
          "type": "address"
        },
        {
          "internalType": "uint256",
          "name": "subtractedValue",
          "type": "uint256"
        }
      ],
      "name": "decreaseAllowance",
      "outputs": [
        {
          "internalType": "bool",
          "name": "",
          "type": "bool"
        }
      ],
      "stateMutability": "nonpayable",
      "type": "function"
    },
    {
      "inputs": [
        {
          "internalType": "uint256",
          "name": "rewardTokenValue",
          "type": "uint256"
        }
      ],
      "name": "distributeRewards",
      "outputs": [],
      "stateMutability": "nonpayable",
      "type": "function"
    },
    {
      "inputs": [],
      "name": "getCharityAddress",
      "outputs": [
        {
          "internalType": "address",
          "name": "_charityBagAddress",
          "type": "address"
        }
      ],
      "stateMutability": "view",
      "type": "function"
    },
    {
      "inputs": [],
      "name": "getStakingRewardsBag",
      "outputs": [
        {
          "internalType": "uint256",
          "name": "totalRewards",
          "type": "uint256"
        }
      ],
      "stateMutability": "view",
      "type": "function"
    },
    {
      "inputs": [
        {
          "internalType": "address",
          "name": "spender",
          "type": "address"
        },
        {
          "internalType": "uint256",
          "name": "addedValue",
          "type": "uint256"
        }
      ],
      "name": "increaseAllowance",
      "outputs": [
        {
          "internalType": "bool",
          "name": "",
          "type": "bool"
        }
      ],
      "stateMutability": "nonpayable",
      "type": "function"
    },
    {
      "inputs": [],
      "name": "name",
      "outputs": [
        {
          "internalType": "string",
          "name": "",
          "type": "string"
        }
      ],
      "stateMutability": "view",
      "type": "function"
    },
    {
      "inputs": [
        {
          "internalType": "uint256",
          "name": "_stakedVlrAmount",
          "type": "uint256"
        }
      ],
      "name": "stake",
      "outputs": [
        {
          "internalType": "uint256",
          "name": "svlrMinted",
          "type": "uint256"
        },
        {
          "internalType": "uint256",
          "name": "stakingFeePaid",
          "type": "uint256"
        },
        {
          "internalType": "uint256",
          "name": "charityFeePaid",
          "type": "uint256"
        },
        {
          "internalType": "uint256",
          "name": "burnFeePaid",
          "type": "uint256"
        }
      ],
      "stateMutability": "nonpayable",
      "type": "function"
    },
    {
      "inputs": [],
      "name": "symbol",
      "outputs": [
        {
          "internalType": "string",
          "name": "",
          "type": "string"
        }
      ],
      "stateMutability": "view",
      "type": "function"
    },
    {
      "inputs": [],
      "name": "totalSupply",
      "outputs": [
        {
          "internalType": "uint256",
          "name": "",
          "type": "uint256"
        }
      ],
      "stateMutability": "view",
      "type": "function"
    },
    {
      "inputs": [
        {
          "internalType": "address",
          "name": "recipient",
          "type": "address"
        },
        {
          "internalType": "uint256",
          "name": "amount",
          "type": "uint256"
        }
      ],
      "name": "transfer",
      "outputs": [
        {
          "internalType": "bool",
          "name": "",
          "type": "bool"
        }
      ],
      "stateMutability": "nonpayable",
      "type": "function"
    },
    {
      "inputs": [
        {
          "internalType": "address",
          "name": "sender",
          "type": "address"
        },
        {
          "internalType": "address",
          "name": "recipient",
          "type": "address"
        },
        {
          "internalType": "uint256",
          "name": "amount",
          "type": "uint256"
        }
      ],
      "name": "transferFrom",
      "outputs": [
        {
          "internalType": "bool",
          "name": "",
          "type": "bool"
        }
      ],
      "stateMutability": "nonpayable",
      "type": "function"
    },
    {
      "inputs": [
        {
          "internalType": "uint256",
          "name": "_unstakedAmount",
          "type": "uint256"
        }
      ],
      "name": "unstake",
      "outputs": [
        {
          "internalType": "uint256",
          "name": "charityFeePaid",
          "type": "uint256"
        },
        {
          "internalType": "uint256",
          "name": "burnFeePaid",
          "type": "uint256"
        },
        {
          "internalType": "uint256",
          "name": "stakingFeePaid",
          "type": "uint256"
        },
        {
          "internalType": "uint256",
          "name": "vlrReturned",
          "type": "uint256"
        },
        {
          "internalType": "uint256",
          "name": "vlrRewardsReturned",
          "type": "uint256"
        }
      ],
      "stateMutability": "nonpayable",
      "type": "function"
    }
  ],
  "transactionHash": "0x9cabc5f944598c1369bbaf3511cdf3760fce901c7677aedb451bb380ed20aa30",
  "args": [
    "Staked EVLR1 Token",
    "SEVLR",
    "0x82Ba66F57D5E419e990767Cf85edfF480350723b",
    "0x232AaA721a1a6e55084bf7B9f39E457F80bDA751",
    "0x8995ae7935Ac2C9267D1D232B13778b94d8794F6",
    270,
    21,
    9
  ],
  "solcInputHash": "70ff4dc6b9182ccd387ab32ba5f5d774",
  "bytecode": "0x608060405261dead600a60006101000a81548173ffffffffffffffffffffffffffffffffffffffff021916908373ffffffffffffffffffffffffffffffffffffffff1602179055503480156200005457600080fd5b5060405162003b8d38038062003b8d83398181016040528101906200007a9190620002ee565b87878160039080519060200190620000949291906200019e565b508060049080519060200190620000ad9291906200019e565b50505085600560006101000a81548173ffffffffffffffffffffffffffffffffffffffff021916908373ffffffffffffffffffffffffffffffffffffffff160217905550600060098190555084600760006101000a81548173ffffffffffffffffffffffffffffffffffffffff021916908373ffffffffffffffffffffffffffffffffffffffff16021790555083600860006101000a81548173ffffffffffffffffffffffffffffffffffffffff021916908373ffffffffffffffffffffffffffffffffffffffff16021790555082600b8190555081600c8190555080600d819055505050505050505050620005c5565b828054620001ac90620004b6565b90600052602060002090601f016020900481019282620001d057600085556200021c565b82601f10620001eb57805160ff19168380011785556200021c565b828001600101855582156200021c579182015b828111156200021b578251825591602001919060010190620001fe565b5b5090506200022b91906200022f565b5090565b5b808211156200024a57600081600090555060010162000230565b5090565b6000620002656200025f846200040c565b620003e3565b9050828152602081018484840111156200027e57600080fd5b6200028b84828562000480565b509392505050565b600081519050620002a48162000591565b92915050565b600082601f830112620002bc57600080fd5b8151620002ce8482602086016200024e565b91505092915050565b600081519050620002e881620005ab565b92915050565b600080600080600080600080610100898b0312156200030c57600080fd5b600089015167ffffffffffffffff8111156200032757600080fd5b620003358b828c01620002aa565b985050602089015167ffffffffffffffff8111156200035357600080fd5b620003618b828c01620002aa565b9750506040620003748b828c0162000293565b9650506060620003878b828c0162000293565b95505060806200039a8b828c0162000293565b94505060a0620003ad8b828c01620002d7565b93505060c0620003c08b828c01620002d7565b92505060e0620003d38b828c01620002d7565b9150509295985092959890939650565b6000620003ef62000402565b9050620003fd8282620004ec565b919050565b6000604051905090565b600067ffffffffffffffff8211156200042a576200042962000551565b5b620004358262000580565b9050602081019050919050565b60006200044f8262000456565b9050919050565b600073ffffffffffffffffffffffffffffffffffffffff82169050919050565b6000819050919050565b60005b83811015620004a057808201518184015260208101905062000483565b83811115620004b0576000848401525b50505050565b60006002820490506001821680620004cf57607f821691505b60208210811415620004e657620004e562000522565b5b50919050565b620004f78262000580565b810181811067ffffffffffffffff8211171562000519576200051862000551565b5b80604052505050565b7f4e487b7100000000000000000000000000000000000000000000000000000000600052602260045260246000fd5b7f4e487b7100000000000000000000000000000000000000000000000000000000600052604160045260246000fd5b6000601f19601f8301169050919050565b6200059c8162000442565b8114620005a857600080fd5b50565b620005b68162000476565b8114620005c257600080fd5b50565b6135b880620005d56000396000f3fe608060405234801561001057600080fd5b50600436106101005760003560e01c80634e1fce5111610097578063a457c2d711610066578063a457c2d7146102c9578063a694fc3a146102f9578063a9059cbb1461032c578063dd62ed3e1461035c57610100565b80634e1fce511461024157806359974e381461025f57806370a082311461027b57806395d89b41146102ab57610100565b806323b872dd116100d357806323b872dd1461018f5780632e17de78146101bf578063313ce567146101f3578063395093511461021157610100565b806306fdde0314610105578063095ea7b31461012357806318160ddd146101535780631ad0639314610171575b600080fd5b61010d61038c565b60405161011a9190612a37565b60405180910390f35b61013d6004803603810190610138919061268b565b61041e565b60405161014a9190612a1c565b60405180910390f35b61015b61043c565b6040516101689190612c19565b60405180910390f35b610179610446565b60405161018691906129a1565b60405180910390f35b6101a960048036038101906101a4919061263c565b610470565b6040516101b69190612a1c565b60405180910390f35b6101d960048036038101906101d491906126f0565b610568565b6040516101ea959493929190612c79565b60405180910390f35b6101fb610952565b6040516102089190612ccc565b60405180910390f35b61022b6004803603810190610226919061268b565b61095b565b6040516102389190612a1c565b60405180910390f35b610249610a07565b6040516102569190612c19565b60405180910390f35b610279600480360381019061027491906126f0565b610a11565b005b610295600480360381019061029091906125d7565b610d11565b6040516102a29190612c19565b60405180910390f35b6102b3610d59565b6040516102c09190612a37565b60405180910390f35b6102e360048036038101906102de919061268b565b610deb565b6040516102f09190612a1c565b60405180910390f35b610313600480360381019061030e91906126f0565b610ed6565b6040516103239493929190612c34565b60405180910390f35b6103466004803603810190610341919061268b565b6112eb565b6040516103539190612a1c565b60405180910390f35b61037660048036038101906103719190612600565b611309565b6040516103839190612c19565b60405180910390f35b60606003805461039b90613011565b80601f01602080910402602001604051908101604052809291908181526020018280546103c790613011565b80156104145780601f106103e957610100808354040283529160200191610414565b820191906000526020600020905b8154815290600101906020018083116103f757829003601f168201915b5050505050905090565b600061043261042b611390565b8484611398565b6001905092915050565b6000600254905090565b6000600760009054906101000a900473ffffffffffffffffffffffffffffffffffffffff16905090565b600061047d848484611563565b6000600160008673ffffffffffffffffffffffffffffffffffffffff1673ffffffffffffffffffffffffffffffffffffffff16815260200190815260200160002060006104c8611390565b73ffffffffffffffffffffffffffffffffffffffff1673ffffffffffffffffffffffffffffffffffffffff16815260200190815260200160002054905082811015610548576040517f08c379a000000000000000000000000000000000000000000000000000000000815260040161053f90612b19565b60405180910390fd5b61055c85610554611390565b858403611398565b60019150509392505050565b60008060008060008561057a33610d11565b10156105bb576040517f08c379a00000000000000000000000000000000000000000000000000000000081526004016105b290612a79565b60405180910390fd5b6103e8600b54876105cc9190612efb565b6105d69190612d59565b925082600960008282546105ea9190612d03565b92505081905550612710600c54876106029190612efb565b61060c9190612d59565b9450612710600d548761061f9190612efb565b6106299190612d59565b9350600061063561043c565b905086816106439190612efb565b6002826106509190612ddd565b8260095461065e9190612efb565b6106689190612d03565b6106729190612f55565b8760026009546106829190612ddd565b61068c9190612efb565b6106969190612d59565b915081600960008282546106aa9190612f55565b9250508190555086826106bd9190612d03565b9250600560009054906101000a900473ffffffffffffffffffffffffffffffffffffffff1673ffffffffffffffffffffffffffffffffffffffff1663a9059cbb338789888861070c9190612f55565b6107169190612f55565b6107209190612f55565b6040518363ffffffff1660e01b815260040161073d9291906129f3565b602060405180830381600087803b15801561075757600080fd5b505af115801561076b573d6000803e3d6000fd5b505050506040513d601f19601f8201168201806040525081019061078f91906126c7565b5061079a33886117e4565b600560009054906101000a900473ffffffffffffffffffffffffffffffffffffffff1673ffffffffffffffffffffffffffffffffffffffff1663a9059cbb600760009054906101000a900473ffffffffffffffffffffffffffffffffffffffff16886040518363ffffffff1660e01b81526004016108199291906129f3565b602060405180830381600087803b15801561083357600080fd5b505af1158015610847573d6000803e3d6000fd5b505050506040513d601f19601f8201168201806040525081019061086b91906126c7565b50600560009054906101000a900473ffffffffffffffffffffffffffffffffffffffff1673ffffffffffffffffffffffffffffffffffffffff1663a9059cbb600a60009054906101000a900473ffffffffffffffffffffffffffffffffffffffff16876040518363ffffffff1660e01b81526004016108eb9291906129f3565b602060405180830381600087803b15801561090557600080fd5b505af1158015610919573d6000803e3d6000fd5b505050506040513d601f19601f8201168201806040525081019061093d91906126c7565b5061094833886119bb565b5091939590929450565b60006012905090565b60006109fd610968611390565b848460016000610976611390565b73ffffffffffffffffffffffffffffffffffffffff1673ffffffffffffffffffffffffffffffffffffffff16815260200190815260200160002060008873ffffffffffffffffffffffffffffffffffffffff1673ffffffffffffffffffffffffffffffffffffffff168152602001908152602001600020546109f89190612d03565b611398565b6001905092915050565b6000600954905090565b600860009054906101000a900473ffffffffffffffffffffffffffffffffffffffff1673ffffffffffffffffffffffffffffffffffffffff163373ffffffffffffffffffffffffffffffffffffffff1614610aa1576040517f08c379a0000000000000000000000000000000000000000000000000000000008152600401610a9890612af9565b60405180910390fd5b80600560009054906101000a900473ffffffffffffffffffffffffffffffffffffffff1673ffffffffffffffffffffffffffffffffffffffff166370a08231336040518263ffffffff1660e01b8152600401610afd91906129a1565b60206040518083038186803b158015610b1557600080fd5b505afa158015610b29573d6000803e3d6000fd5b505050506040513d601f19601f82011682018060405250810190610b4d9190612719565b1015610b8e576040517f08c379a0000000000000000000000000000000000000000000000000000000008152600401610b8590612bb9565b60405180910390fd5b6000610b9942611c48565b905060005b600680549050811015610d04576000610bb78242611ebd565b90506000838286610bc89190612efb565b610bd29190612d59565b9050600560009054906101000a900473ffffffffffffffffffffffffffffffffffffffff1673ffffffffffffffffffffffffffffffffffffffff1663a9059cbb60068581548110610c4c577f4e487b7100000000000000000000000000000000000000000000000000000000600052603260045260246000fd5b906000526020600020906004020160030160009054906101000a900473ffffffffffffffffffffffffffffffffffffffff16836040518363ffffffff1660e01b8152600401610c9c9291906129f3565b602060405180830381600087803b158015610cb657600080fd5b505af1158015610cca573d6000803e3d6000fd5b505050506040513d601f19601f82011682018060405250810190610cee91906126c7565b5050508080610cfc90613043565b915050610b9e565b50610d0d612009565b5050565b60008060008373ffffffffffffffffffffffffffffffffffffffff1673ffffffffffffffffffffffffffffffffffffffff168152602001908152602001600020549050919050565b606060048054610d6890613011565b80601f0160208091040260200160405190810160405280929190818152602001828054610d9490613011565b8015610de15780601f10610db657610100808354040283529160200191610de1565b820191906000526020600020905b815481529060010190602001808311610dc457829003601f168201915b5050505050905090565b60008060016000610dfa611390565b73ffffffffffffffffffffffffffffffffffffffff1673ffffffffffffffffffffffffffffffffffffffff16815260200190815260200160002060008573ffffffffffffffffffffffffffffffffffffffff1673ffffffffffffffffffffffffffffffffffffffff16815260200190815260200160002054905082811015610eb7576040517f08c379a0000000000000000000000000000000000000000000000000000000008152600401610eae90612bd9565b60405180910390fd5b610ecb610ec2611390565b85858403611398565b600191505092915050565b60008060008084600560009054906101000a900473ffffffffffffffffffffffffffffffffffffffff1673ffffffffffffffffffffffffffffffffffffffff166370a08231336040518263ffffffff1660e01b8152600401610f3891906129a1565b60206040518083038186803b158015610f5057600080fd5b505afa158015610f64573d6000803e3d6000fd5b505050506040513d601f19601f82011682018060405250810190610f889190612719565b1015610fc9576040517f08c379a0000000000000000000000000000000000000000000000000000000008152600401610fc090612b39565b60405180910390fd5b612710600b5486610fda9190612efb565b610fe49190612d59565b92508260096000828254610ff89190612d03565b92505081905550612710600c54866110109190612efb565b61101a9190612d59565b9150612710600d548661102d9190612efb565b6110379190612d59565b90508082846110469190612d03565b6110509190612d03565b8561105b9190612f55565b935061106733856122e3565b6110744260008633612443565b600560009054906101000a900473ffffffffffffffffffffffffffffffffffffffff1673ffffffffffffffffffffffffffffffffffffffff166323b872dd33600760009054906101000a900473ffffffffffffffffffffffffffffffffffffffff16856040518463ffffffff1660e01b81526004016110f5939291906129bc565b602060405180830381600087803b15801561110f57600080fd5b505af1158015611123573d6000803e3d6000fd5b505050506040513d601f19601f8201168201806040525081019061114791906126c7565b50600560009054906101000a900473ffffffffffffffffffffffffffffffffffffffff1673ffffffffffffffffffffffffffffffffffffffff166323b872dd33600a60009054906101000a900473ffffffffffffffffffffffffffffffffffffffff16846040518463ffffffff1660e01b81526004016111c9939291906129bc565b602060405180830381600087803b1580156111e357600080fd5b505af11580156111f7573d6000803e3d6000fd5b505050506040513d601f19601f8201168201806040525081019061121b91906126c7565b50600560009054906101000a900473ffffffffffffffffffffffffffffffffffffffff1673ffffffffffffffffffffffffffffffffffffffff166323b872dd333085858a6112699190612f55565b6112739190612f55565b6040518463ffffffff1660e01b8152600401611291939291906129bc565b602060405180830381600087803b1580156112ab57600080fd5b505af11580156112bf573d6000803e3d6000fd5b505050506040513d601f19601f820116820180604052508101906112e391906126c7565b509193509193565b60006112ff6112f8611390565b8484611563565b6001905092915050565b6000600160008473ffffffffffffffffffffffffffffffffffffffff1673ffffffffffffffffffffffffffffffffffffffff16815260200190815260200160002060008373ffffffffffffffffffffffffffffffffffffffff1673ffffffffffffffffffffffffffffffffffffffff16815260200190815260200160002054905092915050565b600033905090565b600073ffffffffffffffffffffffffffffffffffffffff168373ffffffffffffffffffffffffffffffffffffffff161415611408576040517f08c379a00000000000000000000000000000000000000000000000000000000081526004016113ff90612b99565b60405180910390fd5b600073ffffffffffffffffffffffffffffffffffffffff168273ffffffffffffffffffffffffffffffffffffffff161415611478576040517f08c379a000000000000000000000000000000000000000000000000000000000815260040161146f90612ab9565b60405180910390fd5b80600160008573ffffffffffffffffffffffffffffffffffffffff1673ffffffffffffffffffffffffffffffffffffffff16815260200190815260200160002060008473ffffffffffffffffffffffffffffffffffffffff1673ffffffffffffffffffffffffffffffffffffffff168152602001908152602001600020819055508173ffffffffffffffffffffffffffffffffffffffff168373ffffffffffffffffffffffffffffffffffffffff167f8c5be1e5ebec7d5bd14f71427d1e84f3dd0314c0f7b2291e5b200ac8c7c3b925836040516115569190612c19565b60405180910390a3505050565b600073ffffffffffffffffffffffffffffffffffffffff168373ffffffffffffffffffffffffffffffffffffffff1614156115d3576040517f08c379a00000000000000000000000000000000000000000000000000000000081526004016115ca90612b79565b60405180910390fd5b600073ffffffffffffffffffffffffffffffffffffffff168273ffffffffffffffffffffffffffffffffffffffff161415611643576040517f08c379a000000000000000000000000000000000000000000000000000000000815260040161163a90612a59565b60405180910390fd5b61164e83838361253b565b60008060008573ffffffffffffffffffffffffffffffffffffffff1673ffffffffffffffffffffffffffffffffffffffff168152602001908152602001600020549050818110156116d4576040517f08c379a00000000000000000000000000000000000000000000000000000000081526004016116cb90612ad9565b60405180910390fd5b8181036000808673ffffffffffffffffffffffffffffffffffffffff1673ffffffffffffffffffffffffffffffffffffffff16815260200190815260200160002081905550816000808573ffffffffffffffffffffffffffffffffffffffff1673ffffffffffffffffffffffffffffffffffffffff16815260200190815260200160002060008282546117679190612d03565b925050819055508273ffffffffffffffffffffffffffffffffffffffff168473ffffffffffffffffffffffffffffffffffffffff167fddf252ad1be2c89b69c2b068fc378daa952ba7f163c4a11628f55a4df523b3ef846040516117cb9190612c19565b60405180910390a36117de848484612540565b50505050565b600073ffffffffffffffffffffffffffffffffffffffff168273ffffffffffffffffffffffffffffffffffffffff161415611854576040517f08c379a000000000000000000000000000000000000000000000000000000000815260040161184b90612b59565b60405180910390fd5b6118608260008361253b565b60008060008473ffffffffffffffffffffffffffffffffffffffff1673ffffffffffffffffffffffffffffffffffffffff168152602001908152602001600020549050818110156118e6576040517f08c379a00000000000000000000000000000000000000000000000000000000081526004016118dd90612a99565b60405180910390fd5b8181036000808573ffffffffffffffffffffffffffffffffffffffff1673ffffffffffffffffffffffffffffffffffffffff16815260200190815260200160002081905550816002600082825461193d9190612f55565b92505081905550600073ffffffffffffffffffffffffffffffffffffffff168373ffffffffffffffffffffffffffffffffffffffff167fddf252ad1be2c89b69c2b068fc378daa952ba7f163c4a11628f55a4df523b3ef846040516119a29190612c19565b60405180910390a36119b683600084612540565b505050565b6000805b600680549050811015611c42578373ffffffffffffffffffffffffffffffffffffffff1660068281548110611a1d577f4e487b7100000000000000000000000000000000000000000000000000000000600052603260045260246000fd5b906000526020600020906004020160030160009054906101000a900473ffffffffffffffffffffffffffffffffffffffff1673ffffffffffffffffffffffffffffffffffffffff161415611c2f578260068281548110611aa6577f4e487b7100000000000000000000000000000000000000000000000000000000600052603260045260246000fd5b90600052602060002090600402016002015483611ac39190612d03565b11611b76574260068281548110611b03577f4e487b7100000000000000000000000000000000000000000000000000000000600052603260045260246000fd5b90600052602060002090600402016001018190555060068181548110611b52577f4e487b7100000000000000000000000000000000000000000000000000000000600052603260045260246000fd5b90600052602060002090600402016002015482611b6f9190612d03565b9150611c2e565b60008360068381548110611bb3577f4e487b7100000000000000000000000000000000000000000000000000000000600052603260045260246000fd5b90600052602060002090600402016002015484611bd09190612d03565b611bda9190612f55565b90508060068381548110611c17577f4e487b7100000000000000000000000000000000000000000000000000000000600052603260045260246000fd5b906000526020600020906004020160020181905550505b5b8080611c3a90613043565b9150506119bf565b50505050565b6000806000905060005b600680549050811015611eb357600060068281548110611c9b577f4e487b7100000000000000000000000000000000000000000000000000000000600052603260045260246000fd5b9060005260206000209060040201600101541115611dd15760006201518060068381548110611cf3577f4e487b7100000000000000000000000000000000000000000000000000000000600052603260045260246000fd5b90600052602060002090600402016000015460068481548110611d3f577f4e487b7100000000000000000000000000000000000000000000000000000000600052603260045260246000fd5b906000526020600020906004020160010154611d5b9190612f55565b611d659190612d59565b905060068281548110611da1577f4e487b7100000000000000000000000000000000000000000000000000000000600052603260045260246000fd5b90600052602060002090600402016002015481611dbe9190612efb565b83611dc99190612d03565b925050611ea0565b60006201518060068381548110611e11577f4e487b7100000000000000000000000000000000000000000000000000000000600052603260045260246000fd5b90600052602060002090600402016000015486611e2e9190612f55565b611e389190612d59565b905060068281548110611e74577f4e487b7100000000000000000000000000000000000000000000000000000000600052603260045260246000fd5b90600052602060002090600402016002015481611e919190612efb565b83611e9c9190612d03565b9250505b8080611eab90613043565b915050611c52565b5080915050919050565b60008060068481548110611efa577f4e487b7100000000000000000000000000000000000000000000000000000000600052603260045260246000fd5b90600052602060002090600402016040518060800160405290816000820154815260200160018201548152602001600282015481526020016003820160009054906101000a900473ffffffffffffffffffffffffffffffffffffffff1673ffffffffffffffffffffffffffffffffffffffff1673ffffffffffffffffffffffffffffffffffffffff1681525050905060009150600081602001511415611fce57806040015162015180826000015185611fb39190612f55565b611fbd9190612d59565b611fc79190612efb565b9150612002565b80604001516201518082600001518360200151611feb9190612f55565b611ff59190612d59565b611fff9190612efb565b91505b5092915050565b60005b6006805490508110156122e057600060068281548110612055577f4e487b7100000000000000000000000000000000000000000000000000000000600052603260045260246000fd5b906000526020600020906004020160010154111561222b57600660016006805490506120819190612f55565b815481106120b8577f4e487b7100000000000000000000000000000000000000000000000000000000600052603260045260246000fd5b906000526020600020906004020160068281548110612100577f4e487b7100000000000000000000000000000000000000000000000000000000600052603260045260246000fd5b90600052602060002090600402016000820154816000015560018201548160010155600282015481600201556003820160009054906101000a900473ffffffffffffffffffffffffffffffffffffffff168160030160006101000a81548173ffffffffffffffffffffffffffffffffffffffff021916908373ffffffffffffffffffffffffffffffffffffffff16021790555090505060068054806121ce577f4e487b7100000000000000000000000000000000000000000000000000000000600052603160045260246000fd5b6001900381819060005260206000209060040201600080820160009055600182016000905560028201600090556003820160006101000a81549073ffffffffffffffffffffffffffffffffffffffff0219169055505090556122cd565b4260068281548110612266577f4e487b7100000000000000000000000000000000000000000000000000000000600052603260045260246000fd5b9060005260206000209060040201600001819055506000600682815481106122b7577f4e487b7100000000000000000000000000000000000000000000000000000000600052603260045260246000fd5b9060005260206000209060040201600101819055505b80806122d890613043565b91505061200c565b50565b600073ffffffffffffffffffffffffffffffffffffffff168273ffffffffffffffffffffffffffffffffffffffff161415612353576040517f08c379a000000000000000000000000000000000000000000000000000000000815260040161234a90612bf9565b60405180910390fd5b61235f6000838361253b565b80600260008282546123719190612d03565b92505081905550806000808473ffffffffffffffffffffffffffffffffffffffff1673ffffffffffffffffffffffffffffffffffffffff16815260200190815260200160002060008282546123c69190612d03565b925050819055508173ffffffffffffffffffffffffffffffffffffffff16600073ffffffffffffffffffffffffffffffffffffffff167fddf252ad1be2c89b69c2b068fc378daa952ba7f163c4a11628f55a4df523b3ef8360405161242b9190612c19565b60405180910390a361243f60008383612540565b5050565b61244b612545565b84816000018181525050838160200181815250508281604001818152505081816060019073ffffffffffffffffffffffffffffffffffffffff16908173ffffffffffffffffffffffffffffffffffffffff1681525050600681908060018154018082558091505060019003906000526020600020906004020160009091909190915060008201518160000155602082015181600101556040820151816002015560608201518160030160006101000a81548173ffffffffffffffffffffffffffffffffffffffff021916908373ffffffffffffffffffffffffffffffffffffffff16021790555050505050505050565b505050565b505050565b6040518060800160405280600081526020016000815260200160008152602001600073ffffffffffffffffffffffffffffffffffffffff1681525090565b6000813590506125928161353d565b92915050565b6000815190506125a781613554565b92915050565b6000813590506125bc8161356b565b92915050565b6000815190506125d18161356b565b92915050565b6000602082840312156125e957600080fd5b60006125f784828501612583565b91505092915050565b6000806040838503121561261357600080fd5b600061262185828601612583565b925050602061263285828601612583565b9150509250929050565b60008060006060848603121561265157600080fd5b600061265f86828701612583565b935050602061267086828701612583565b9250506040612681868287016125ad565b9150509250925092565b6000806040838503121561269e57600080fd5b60006126ac85828601612583565b92505060206126bd858286016125ad565b9150509250929050565b6000602082840312156126d957600080fd5b60006126e784828501612598565b91505092915050565b60006020828403121561270257600080fd5b6000612710848285016125ad565b91505092915050565b60006020828403121561272b57600080fd5b6000612739848285016125c2565b91505092915050565b61274b81612f89565b82525050565b61275a81612f9b565b82525050565b600061276b82612ce7565b6127758185612cf2565b9350612785818560208601612fde565b61278e81613119565b840191505092915050565b60006127a6602383612cf2565b91506127b182613137565b604082019050919050565b60006127c9601783612cf2565b91506127d482613186565b602082019050919050565b60006127ec602283612cf2565b91506127f7826131af565b604082019050919050565b600061280f602283612cf2565b915061281a826131fe565b604082019050919050565b6000612832602683612cf2565b915061283d8261324d565b604082019050919050565b6000612855603983612cf2565b91506128608261329c565b604082019050919050565b6000612878602883612cf2565b9150612883826132eb565b604082019050919050565b600061289b602583612cf2565b91506128a68261333a565b604082019050919050565b60006128be602183612cf2565b91506128c982613389565b604082019050919050565b60006128e1602583612cf2565b91506128ec826133d8565b604082019050919050565b6000612904602483612cf2565b915061290f82613427565b604082019050919050565b6000612927602883612cf2565b915061293282613476565b604082019050919050565b600061294a602583612cf2565b9150612955826134c5565b604082019050919050565b600061296d601f83612cf2565b915061297882613514565b602082019050919050565b61298c81612fc7565b82525050565b61299b81612fd1565b82525050565b60006020820190506129b66000830184612742565b92915050565b60006060820190506129d16000830186612742565b6129de6020830185612742565b6129eb6040830184612983565b949350505050565b6000604082019050612a086000830185612742565b612a156020830184612983565b9392505050565b6000602082019050612a316000830184612751565b92915050565b60006020820190508181036000830152612a518184612760565b905092915050565b60006020820190508181036000830152612a7281612799565b9050919050565b60006020820190508181036000830152612a92816127bc565b9050919050565b60006020820190508181036000830152612ab2816127df565b9050919050565b60006020820190508181036000830152612ad281612802565b9050919050565b60006020820190508181036000830152612af281612825565b9050919050565b60006020820190508181036000830152612b1281612848565b9050919050565b60006020820190508181036000830152612b328161286b565b9050919050565b60006020820190508181036000830152612b528161288e565b9050919050565b60006020820190508181036000830152612b72816128b1565b9050919050565b60006020820190508181036000830152612b92816128d4565b9050919050565b60006020820190508181036000830152612bb2816128f7565b9050919050565b60006020820190508181036000830152612bd28161291a565b9050919050565b60006020820190508181036000830152612bf28161293d565b9050919050565b60006020820190508181036000830152612c1281612960565b9050919050565b6000602082019050612c2e6000830184612983565b92915050565b6000608082019050612c496000830187612983565b612c566020830186612983565b612c636040830185612983565b612c706060830184612983565b95945050505050565b600060a082019050612c8e6000830188612983565b612c9b6020830187612983565b612ca86040830186612983565b612cb56060830185612983565b612cc26080830184612983565b9695505050505050565b6000602082019050612ce16000830184612992565b92915050565b600081519050919050565b600082825260208201905092915050565b6000612d0e82612fc7565b9150612d1983612fc7565b9250827fffffffffffffffffffffffffffffffffffffffffffffffffffffffffffffffff03821115612d4e57612d4d61308c565b5b828201905092915050565b6000612d6482612fc7565b9150612d6f83612fc7565b925082612d7f57612d7e6130bb565b5b828204905092915050565b6000808291508390505b6001851115612dd457808604811115612db057612daf61308c565b5b6001851615612dbf5780820291505b8081029050612dcd8561312a565b9450612d94565b94509492505050565b6000612de882612fc7565b9150612df383612fd1565b9250612e207fffffffffffffffffffffffffffffffffffffffffffffffffffffffffffffffff8484612e28565b905092915050565b600082612e385760019050612ef4565b81612e465760009050612ef4565b8160018114612e5c5760028114612e6657612e95565b6001915050612ef4565b60ff841115612e7857612e7761308c565b5b8360020a915084821115612e8f57612e8e61308c565b5b50612ef4565b5060208310610133831016604e8410600b8410161715612eca5782820a905083811115612ec557612ec461308c565b5b612ef4565b612ed78484846001612d8a565b92509050818404811115612eee57612eed61308c565b5b81810290505b9392505050565b6000612f0682612fc7565b9150612f1183612fc7565b9250817fffffffffffffffffffffffffffffffffffffffffffffffffffffffffffffffff0483118215151615612f4a57612f4961308c565b5b828202905092915050565b6000612f6082612fc7565b9150612f6b83612fc7565b925082821015612f7e57612f7d61308c565b5b828203905092915050565b6000612f9482612fa7565b9050919050565b60008115159050919050565b600073ffffffffffffffffffffffffffffffffffffffff82169050919050565b6000819050919050565b600060ff82169050919050565b60005b83811015612ffc578082015181840152602081019050612fe1565b8381111561300b576000848401525b50505050565b6000600282049050600182168061302957607f821691505b6020821081141561303d5761303c6130ea565b5b50919050565b600061304e82612fc7565b91507fffffffffffffffffffffffffffffffffffffffffffffffffffffffffffffffff8214156130815761308061308c565b5b600182019050919050565b7f4e487b7100000000000000000000000000000000000000000000000000000000600052601160045260246000fd5b7f4e487b7100000000000000000000000000000000000000000000000000000000600052601260045260246000fd5b7f4e487b7100000000000000000000000000000000000000000000000000000000600052602260045260246000fd5b6000601f19601f8301169050919050565b60008160011c9050919050565b7f45524332303a207472616e7366657220746f20746865207a65726f206164647260008201527f6573730000000000000000000000000000000000000000000000000000000000602082015250565b7f496e73756666696369656e74207374616b656420564c52000000000000000000600082015250565b7f45524332303a206275726e20616d6f756e7420657863656564732062616c616e60008201527f6365000000000000000000000000000000000000000000000000000000000000602082015250565b7f45524332303a20617070726f766520746f20746865207a65726f20616464726560008201527f7373000000000000000000000000000000000000000000000000000000000000602082015250565b7f45524332303a207472616e7366657220616d6f756e742065786365656473206260008201527f616c616e63650000000000000000000000000000000000000000000000000000602082015250565b7f4f6e6c792064657369676e61746564206469737472696275746f722063616e2060008201527f6d616b652072657761726420646973747269627574696f6e7300000000000000602082015250565b7f45524332303a207472616e7366657220616d6f756e742065786365656473206160008201527f6c6c6f77616e6365000000000000000000000000000000000000000000000000602082015250565b7f496e73756666696369656e7420656e746572707269736520746f6b656e20626160008201527f6c616e6365000000000000000000000000000000000000000000000000000000602082015250565b7f45524332303a206275726e2066726f6d20746865207a65726f2061646472657360008201527f7300000000000000000000000000000000000000000000000000000000000000602082015250565b7f45524332303a207472616e736665722066726f6d20746865207a65726f20616460008201527f6472657373000000000000000000000000000000000000000000000000000000602082015250565b7f45524332303a20617070726f76652066726f6d20746865207a65726f2061646460008201527f7265737300000000000000000000000000000000000000000000000000000000602082015250565b7f43616e6e6f742064697374726962757465206d6f726520746f6b656e7320746860008201527f616e206f776e6564000000000000000000000000000000000000000000000000602082015250565b7f45524332303a2064656372656173656420616c6c6f77616e63652062656c6f7760008201527f207a65726f000000000000000000000000000000000000000000000000000000602082015250565b7f45524332303a206d696e7420746f20746865207a65726f206164647265737300600082015250565b61354681612f89565b811461355157600080fd5b50565b61355d81612f9b565b811461356857600080fd5b50565b61357481612fc7565b811461357f57600080fd5b5056fea264697066735822122056642ba05e901f79db1519710d605b231533f3f4102446faf901b9ad00e19a6b64736f6c63430008040033",
  "devdoc": {
    "kind": "dev",
    "methods": {
      "allowance(address,address)": {
        "details": "See {IERC20-allowance}."
      },
      "approve(address,uint256)": {
        "details": "See {IERC20-approve}. Requirements: - `spender` cannot be the zero address."
      },
      "balanceOf(address)": {
        "details": "See {IERC20-balanceOf}."
      },
      "decimals()": {
        "details": "Returns the number of decimals used to get its user representation. For example, if `decimals` equals `2`, a balance of `505` tokens should be displayed to a user as `5.05` (`505 / 10 ** 2`). Tokens usually opt for a value of 18, imitating the relationship between Ether and Wei. This is the value {ERC20} uses, unless this function is overridden; NOTE: This information is only used for _display_ purposes: it in no way affects any of the arithmetic of the contract, including {IERC20-balanceOf} and {IERC20-transfer}."
      },
      "decreaseAllowance(address,uint256)": {
        "details": "Atomically decreases the allowance granted to `spender` by the caller. This is an alternative to {approve} that can be used as a mitigation for problems described in {IERC20-approve}. Emits an {Approval} event indicating the updated allowance. Requirements: - `spender` cannot be the zero address. - `spender` must have allowance for the caller of at least `subtractedValue`."
      },
      "increaseAllowance(address,uint256)": {
        "details": "Atomically increases the allowance granted to `spender` by the caller. This is an alternative to {approve} that can be used as a mitigation for problems described in {IERC20-approve}. Emits an {Approval} event indicating the updated allowance. Requirements: - `spender` cannot be the zero address."
      },
      "name()": {
        "details": "Returns the name of the token."
      },
      "symbol()": {
        "details": "Returns the symbol of the token, usually a shorter version of the name."
      },
      "totalSupply()": {
        "details": "See {IERC20-totalSupply}."
      },
      "transfer(address,uint256)": {
        "details": "See {IERC20-transfer}. Requirements: - `recipient` cannot be the zero address. - the caller must have a balance of at least `amount`."
      },
      "transferFrom(address,address,uint256)": {
        "details": "See {IERC20-transferFrom}. Emits an {Approval} event indicating the updated allowance. This is not required by the EIP. See the note at the beginning of {ERC20}. Requirements: - `sender` and `recipient` cannot be the zero address. - `sender` must have a balance of at least `amount`. - the caller must have allowance for ``sender``'s tokens of at least `amount`."
      }
    },
    "version": 1
  },
  "userdoc": {
    "kind": "user",
    "methods": {},
    "version": 1
  },
  "storageLayout": {
    "storage": [
      {
        "astId": 15,
        "contract": "contracts/EvlrStaker.sol:EvlrStaker",
        "label": "_balances",
        "offset": 0,
        "slot": "0",
        "type": "t_mapping(t_address,t_uint256)"
      },
      {
        "astId": 21,
        "contract": "contracts/EvlrStaker.sol:EvlrStaker",
        "label": "_allowances",
        "offset": 0,
        "slot": "1",
        "type": "t_mapping(t_address,t_mapping(t_address,t_uint256))"
      },
      {
        "astId": 23,
        "contract": "contracts/EvlrStaker.sol:EvlrStaker",
        "label": "_totalSupply",
        "offset": 0,
        "slot": "2",
        "type": "t_uint256"
      },
      {
        "astId": 25,
        "contract": "contracts/EvlrStaker.sol:EvlrStaker",
        "label": "_name",
        "offset": 0,
        "slot": "3",
        "type": "t_string_storage"
      },
      {
        "astId": 27,
        "contract": "contracts/EvlrStaker.sol:EvlrStaker",
        "label": "_symbol",
        "offset": 0,
        "slot": "4",
        "type": "t_string_storage"
      },
      {
        "astId": 682,
        "contract": "contracts/EvlrStaker.sol:EvlrStaker",
        "label": "eVlrContract",
        "offset": 0,
        "slot": "5",
        "type": "t_contract(ERC20)545"
      },
      {
        "astId": 686,
        "contract": "contracts/EvlrStaker.sol:EvlrStaker",
        "label": "stakes",
        "offset": 0,
        "slot": "6",
        "type": "t_array(t_struct(StakerBag)764_storage)dyn_storage"
      },
      {
        "astId": 688,
        "contract": "contracts/EvlrStaker.sol:EvlrStaker",
        "label": "charityBagAddress",
        "offset": 0,
        "slot": "7",
        "type": "t_address"
      },
      {
        "astId": 690,
        "contract": "contracts/EvlrStaker.sol:EvlrStaker",
        "label": "distributor",
        "offset": 0,
        "slot": "8",
        "type": "t_address"
      },
      {
        "astId": 692,
        "contract": "contracts/EvlrStaker.sol:EvlrStaker",
        "label": "stakingRewardsBag",
        "offset": 0,
        "slot": "9",
        "type": "t_uint256"
      },
      {
        "astId": 695,
        "contract": "contracts/EvlrStaker.sol:EvlrStaker",
        "label": "burnAddress",
        "offset": 0,
        "slot": "10",
        "type": "t_address"
      },
      {
        "astId": 697,
        "contract": "contracts/EvlrStaker.sol:EvlrStaker",
        "label": "stakingFee",
        "offset": 0,
        "slot": "11",
        "type": "t_uint256"
      },
      {
        "astId": 699,
        "contract": "contracts/EvlrStaker.sol:EvlrStaker",
        "label": "charityFee",
        "offset": 0,
        "slot": "12",
        "type": "t_uint256"
      },
      {
        "astId": 701,
        "contract": "contracts/EvlrStaker.sol:EvlrStaker",
        "label": "burnFee",
        "offset": 0,
        "slot": "13",
        "type": "t_uint256"
      }
    ],
    "types": {
      "t_address": {
        "encoding": "inplace",
        "label": "address",
        "numberOfBytes": "20"
      },
      "t_array(t_struct(StakerBag)764_storage)dyn_storage": {
        "base": "t_struct(StakerBag)764_storage",
        "encoding": "dynamic_array",
        "label": "struct EvlrStaker.StakerBag[]",
        "numberOfBytes": "32"
      },
      "t_contract(ERC20)545": {
        "encoding": "inplace",
        "label": "contract ERC20",
        "numberOfBytes": "20"
      },
      "t_mapping(t_address,t_mapping(t_address,t_uint256))": {
        "encoding": "mapping",
        "key": "t_address",
        "label": "mapping(address => mapping(address => uint256))",
        "numberOfBytes": "32",
        "value": "t_mapping(t_address,t_uint256)"
      },
      "t_mapping(t_address,t_uint256)": {
        "encoding": "mapping",
        "key": "t_address",
        "label": "mapping(address => uint256)",
        "numberOfBytes": "32",
        "value": "t_uint256"
      },
      "t_string_storage": {
        "encoding": "bytes",
        "label": "string",
        "numberOfBytes": "32"
      },
      "t_struct(StakerBag)764_storage": {
        "encoding": "inplace",
        "label": "struct EvlrStaker.StakerBag",
        "members": [
          {
            "astId": 757,
            "contract": "contracts/EvlrStaker.sol:EvlrStaker",
            "label": "startTime",
            "offset": 0,
            "slot": "0",
            "type": "t_uint256"
          },
          {
            "astId": 759,
            "contract": "contracts/EvlrStaker.sol:EvlrStaker",
            "label": "stopTime",
            "offset": 0,
            "slot": "1",
            "type": "t_uint256"
          },
          {
            "astId": 761,
            "contract": "contracts/EvlrStaker.sol:EvlrStaker",
            "label": "stakedTokens",
            "offset": 0,
            "slot": "2",
            "type": "t_uint256"
          },
          {
            "astId": 763,
            "contract": "contracts/EvlrStaker.sol:EvlrStaker",
            "label": "ownerAddress",
            "offset": 0,
            "slot": "3",
            "type": "t_address"
          }
        ],
        "numberOfBytes": "128"
      },
      "t_uint256": {
        "encoding": "inplace",
        "label": "uint256",
        "numberOfBytes": "32"
      }
    }
  }
}