{
  "address": "0x74E42362B622e766060ba5A3ac1dE9Be3BC8B958",
  "abi": [
    {
      "inputs": [
        {
          "internalType": "string",
          "name": "_tokenName",
          "type": "string"
        },
        {
          "internalType": "string",
          "name": "_symbol",
          "type": "string"
        },
        {
          "internalType": "address",
          "name": "_eVlrContractAddress",
          "type": "address"
        },
        {
          "internalType": "address",
          "name": "_charityBagAddress",
          "type": "address"
        },
        {
          "internalType": "address",
          "name": "_distributorAddress",
          "type": "address"
        },
        {
          "internalType": "uint256",
          "name": "_stakingFee",
          "type": "uint256"
        },
        {
          "internalType": "uint256",
          "name": "_charityFee",
          "type": "uint256"
        },
        {
          "internalType": "uint256",
          "name": "_burnFee",
          "type": "uint256"
        }
      ],
      "stateMutability": "nonpayable",
      "type": "constructor"
    },
    {
      "anonymous": false,
      "inputs": [
        {
          "indexed": true,
          "internalType": "address",
          "name": "owner",
          "type": "address"
        },
        {
          "indexed": true,
          "internalType": "address",
          "name": "spender",
          "type": "address"
        },
        {
          "indexed": false,
          "internalType": "uint256",
          "name": "value",
          "type": "uint256"
        }
      ],
      "name": "Approval",
      "type": "event"
    },
    {
      "anonymous": false,
      "inputs": [
        {
          "indexed": true,
          "internalType": "address",
          "name": "from",
          "type": "address"
        },
        {
          "indexed": true,
          "internalType": "address",
          "name": "to",
          "type": "address"
        },
        {
          "indexed": false,
          "internalType": "uint256",
          "name": "value",
          "type": "uint256"
        }
      ],
      "name": "Transfer",
      "type": "event"
    },
    {
      "inputs": [
        {
          "internalType": "address",
          "name": "owner",
          "type": "address"
        },
        {
          "internalType": "address",
          "name": "spender",
          "type": "address"
        }
      ],
      "name": "allowance",
      "outputs": [
        {
          "internalType": "uint256",
          "name": "",
          "type": "uint256"
        }
      ],
      "stateMutability": "view",
      "type": "function"
    },
    {
      "inputs": [
        {
          "internalType": "address",
          "name": "spender",
          "type": "address"
        },
        {
          "internalType": "uint256",
          "name": "amount",
          "type": "uint256"
        }
      ],
      "name": "approve",
      "outputs": [
        {
          "internalType": "bool",
          "name": "",
          "type": "bool"
        }
      ],
      "stateMutability": "nonpayable",
      "type": "function"
    },
    {
      "inputs": [
        {
          "internalType": "address",
          "name": "account",
          "type": "address"
        }
      ],
      "name": "balanceOf",
      "outputs": [
        {
          "internalType": "uint256",
          "name": "",
          "type": "uint256"
        }
      ],
      "stateMutability": "view",
      "type": "function"
    },
    {
      "inputs": [],
      "name": "decimals",
      "outputs": [
        {
          "internalType": "uint8",
          "name": "",
          "type": "uint8"
        }
      ],
      "stateMutability": "view",
      "type": "function"
    },
    {
      "inputs": [
        {
          "internalType": "address",
          "name": "spender",
          "type": "address"
        },
        {
          "internalType": "uint256",
          "name": "subtractedValue",
          "type": "uint256"
        }
      ],
      "name": "decreaseAllowance",
      "outputs": [
        {
          "internalType": "bool",
          "name": "",
          "type": "bool"
        }
      ],
      "stateMutability": "nonpayable",
      "type": "function"
    },
    {
      "inputs": [
        {
          "internalType": "uint256",
          "name": "rewardTokenValue",
          "type": "uint256"
        }
      ],
      "name": "distributeRewards",
      "outputs": [],
      "stateMutability": "nonpayable",
      "type": "function"
    },
    {
      "inputs": [],
      "name": "getCharityAddress",
      "outputs": [
        {
          "internalType": "address",
          "name": "_charityBagAddress",
          "type": "address"
        }
      ],
      "stateMutability": "view",
      "type": "function"
    },
    {
      "inputs": [],
      "name": "getStakingRewardsBag",
      "outputs": [
        {
          "internalType": "uint256",
          "name": "totalRewards",
          "type": "uint256"
        }
      ],
      "stateMutability": "view",
      "type": "function"
    },
    {
      "inputs": [
        {
          "internalType": "address",
          "name": "spender",
          "type": "address"
        },
        {
          "internalType": "uint256",
          "name": "addedValue",
          "type": "uint256"
        }
      ],
      "name": "increaseAllowance",
      "outputs": [
        {
          "internalType": "bool",
          "name": "",
          "type": "bool"
        }
      ],
      "stateMutability": "nonpayable",
      "type": "function"
    },
    {
      "inputs": [],
      "name": "name",
      "outputs": [
        {
          "internalType": "string",
          "name": "",
          "type": "string"
        }
      ],
      "stateMutability": "view",
      "type": "function"
    },
    {
      "inputs": [
        {
          "internalType": "uint256",
          "name": "_stakedVlrAmount",
          "type": "uint256"
        }
      ],
      "name": "stake",
      "outputs": [
        {
          "internalType": "uint256",
          "name": "svlrMinted",
          "type": "uint256"
        },
        {
          "internalType": "uint256",
          "name": "stakingFeePaid",
          "type": "uint256"
        },
        {
          "internalType": "uint256",
          "name": "charityFeePaid",
          "type": "uint256"
        },
        {
          "internalType": "uint256",
          "name": "burnFeePaid",
          "type": "uint256"
        }
      ],
      "stateMutability": "nonpayable",
      "type": "function"
    },
    {
      "inputs": [],
      "name": "symbol",
      "outputs": [
        {
          "internalType": "string",
          "name": "",
          "type": "string"
        }
      ],
      "stateMutability": "view",
      "type": "function"
    },
    {
      "inputs": [],
      "name": "totalSupply",
      "outputs": [
        {
          "internalType": "uint256",
          "name": "",
          "type": "uint256"
        }
      ],
      "stateMutability": "view",
      "type": "function"
    },
    {
      "inputs": [
        {
          "internalType": "address",
          "name": "recipient",
          "type": "address"
        },
        {
          "internalType": "uint256",
          "name": "amount",
          "type": "uint256"
        }
      ],
      "name": "transfer",
      "outputs": [
        {
          "internalType": "bool",
          "name": "",
          "type": "bool"
        }
      ],
      "stateMutability": "nonpayable",
      "type": "function"
    },
    {
      "inputs": [
        {
          "internalType": "address",
          "name": "sender",
          "type": "address"
        },
        {
          "internalType": "address",
          "name": "recipient",
          "type": "address"
        },
        {
          "internalType": "uint256",
          "name": "amount",
          "type": "uint256"
        }
      ],
      "name": "transferFrom",
      "outputs": [
        {
          "internalType": "bool",
          "name": "",
          "type": "bool"
        }
      ],
      "stateMutability": "nonpayable",
      "type": "function"
    },
    {
      "inputs": [
        {
          "internalType": "uint256",
          "name": "_unstakedAmount",
          "type": "uint256"
        }
      ],
      "name": "unstake",
      "outputs": [
        {
          "internalType": "uint256",
          "name": "charityFeePaid",
          "type": "uint256"
        },
        {
          "internalType": "uint256",
          "name": "burnFeePaid",
          "type": "uint256"
        },
        {
          "internalType": "uint256",
          "name": "stakingFeePaid",
          "type": "uint256"
        },
        {
          "internalType": "uint256",
          "name": "vlrReturned",
          "type": "uint256"
        },
        {
          "internalType": "uint256",
          "name": "vlrRewardsReturned",
          "type": "uint256"
        }
      ],
      "stateMutability": "nonpayable",
      "type": "function"
    }
  ],
  "transactionHash": "0xf87e5192ddb7fe88d39e051851b4a10839e7aab74d742e456781e059318924d9",
  "args": [
    "Staked EVLR1 Token",
    "SEVLR",
    "0x82Ba66F57D5E419e990767Cf85edfF480350723b",
    "0x232AaA721a1a6e55084bf7B9f39E457F80bDA751",
    "0x8995ae7935Ac2C9267D1D232B13778b94d8794F6",
    270,
    21,
    9
  ],
  "solcInputHash": "837ff636daa437fb493c3973164f8d79",
  "bytecode": "0x608060405261dead600a60006101000a81548173ffffffffffffffffffffffffffffffffffffffff021916908373ffffffffffffffffffffffffffffffffffffffff1602179055503480156200005457600080fd5b5060405162003ba638038062003ba683398181016040528101906200007a9190620002ee565b87878160039080519060200190620000949291906200019e565b508060049080519060200190620000ad9291906200019e565b50505085600560006101000a81548173ffffffffffffffffffffffffffffffffffffffff021916908373ffffffffffffffffffffffffffffffffffffffff160217905550600060098190555084600760006101000a81548173ffffffffffffffffffffffffffffffffffffffff021916908373ffffffffffffffffffffffffffffffffffffffff16021790555083600860006101000a81548173ffffffffffffffffffffffffffffffffffffffff021916908373ffffffffffffffffffffffffffffffffffffffff16021790555082600b8190555081600c8190555080600d819055505050505050505050620005c5565b828054620001ac90620004b6565b90600052602060002090601f016020900481019282620001d057600085556200021c565b82601f10620001eb57805160ff19168380011785556200021c565b828001600101855582156200021c579182015b828111156200021b578251825591602001919060010190620001fe565b5b5090506200022b91906200022f565b5090565b5b808211156200024a57600081600090555060010162000230565b5090565b6000620002656200025f846200040c565b620003e3565b9050828152602081018484840111156200027e57600080fd5b6200028b84828562000480565b509392505050565b600081519050620002a48162000591565b92915050565b600082601f830112620002bc57600080fd5b8151620002ce8482602086016200024e565b91505092915050565b600081519050620002e881620005ab565b92915050565b600080600080600080600080610100898b0312156200030c57600080fd5b600089015167ffffffffffffffff8111156200032757600080fd5b620003358b828c01620002aa565b985050602089015167ffffffffffffffff8111156200035357600080fd5b620003618b828c01620002aa565b9750506040620003748b828c0162000293565b9650506060620003878b828c0162000293565b95505060806200039a8b828c0162000293565b94505060a0620003ad8b828c01620002d7565b93505060c0620003c08b828c01620002d7565b92505060e0620003d38b828c01620002d7565b9150509295985092959890939650565b6000620003ef62000402565b9050620003fd8282620004ec565b919050565b6000604051905090565b600067ffffffffffffffff8211156200042a576200042962000551565b5b620004358262000580565b9050602081019050919050565b60006200044f8262000456565b9050919050565b600073ffffffffffffffffffffffffffffffffffffffff82169050919050565b6000819050919050565b60005b83811015620004a057808201518184015260208101905062000483565b83811115620004b0576000848401525b50505050565b60006002820490506001821680620004cf57607f821691505b60208210811415620004e657620004e562000522565b5b50919050565b620004f78262000580565b810181811067ffffffffffffffff8211171562000519576200051862000551565b5b80604052505050565b7f4e487b7100000000000000000000000000000000000000000000000000000000600052602260045260246000fd5b7f4e487b7100000000000000000000000000000000000000000000000000000000600052604160045260246000fd5b6000601f19601f8301169050919050565b6200059c8162000442565b8114620005a857600080fd5b50565b620005b68162000476565b8114620005c257600080fd5b50565b6135d180620005d56000396000f3fe608060405234801561001057600080fd5b50600436106101005760003560e01c80634e1fce5111610097578063a457c2d711610066578063a457c2d7146102c9578063a694fc3a146102f9578063a9059cbb1461032c578063dd62ed3e1461035c57610100565b80634e1fce511461024157806359974e381461025f57806370a082311461027b57806395d89b41146102ab57610100565b806323b872dd116100d357806323b872dd1461018f5780632e17de78146101bf578063313ce567146101f3578063395093511461021157610100565b806306fdde0314610105578063095ea7b31461012357806318160ddd146101535780631ad0639314610171575b600080fd5b61010d61038c565b60405161011a9190612a50565b60405180910390f35b61013d600480360381019061013891906126a4565b61041e565b60405161014a9190612a35565b60405180910390f35b61015b61043c565b6040516101689190612c32565b60405180910390f35b610179610446565b60405161018691906129ba565b60405180910390f35b6101a960048036038101906101a49190612655565b610470565b6040516101b69190612a35565b60405180910390f35b6101d960048036038101906101d49190612709565b610568565b6040516101ea959493929190612c92565b60405180910390f35b6101fb610952565b6040516102089190612ce5565b60405180910390f35b61022b600480360381019061022691906126a4565b61095b565b6040516102389190612a35565b60405180910390f35b610249610a07565b6040516102569190612c32565b60405180910390f35b61027960048036038101906102749190612709565b610a11565b005b610295600480360381019061029091906125f0565b610d11565b6040516102a29190612c32565b60405180910390f35b6102b3610d59565b6040516102c09190612a50565b60405180910390f35b6102e360048036038101906102de91906126a4565b610deb565b6040516102f09190612a35565b60405180910390f35b610313600480360381019061030e9190612709565b610ed6565b6040516103239493929190612c4d565b60405180910390f35b610346600480360381019061034191906126a4565b611304565b6040516103539190612a35565b60405180910390f35b61037660048036038101906103719190612619565b611322565b6040516103839190612c32565b60405180910390f35b60606003805461039b9061302a565b80601f01602080910402602001604051908101604052809291908181526020018280546103c79061302a565b80156104145780601f106103e957610100808354040283529160200191610414565b820191906000526020600020905b8154815290600101906020018083116103f757829003601f168201915b5050505050905090565b600061043261042b6113a9565b84846113b1565b6001905092915050565b6000600254905090565b6000600760009054906101000a900473ffffffffffffffffffffffffffffffffffffffff16905090565b600061047d84848461157c565b6000600160008673ffffffffffffffffffffffffffffffffffffffff1673ffffffffffffffffffffffffffffffffffffffff16815260200190815260200160002060006104c86113a9565b73ffffffffffffffffffffffffffffffffffffffff1673ffffffffffffffffffffffffffffffffffffffff16815260200190815260200160002054905082811015610548576040517f08c379a000000000000000000000000000000000000000000000000000000000815260040161053f90612b32565b60405180910390fd5b61055c856105546113a9565b8584036113b1565b60019150509392505050565b60008060008060008561057a33610d11565b10156105bb576040517f08c379a00000000000000000000000000000000000000000000000000000000081526004016105b290612a92565b60405180910390fd5b6103e8600b54876105cc9190612f14565b6105d69190612d72565b925082600960008282546105ea9190612d1c565b92505081905550612710600c54876106029190612f14565b61060c9190612d72565b9450612710600d548761061f9190612f14565b6106299190612d72565b9350600061063561043c565b905086816106439190612f14565b6002826106509190612df6565b8260095461065e9190612f14565b6106689190612d1c565b6106729190612f6e565b8760026009546106829190612df6565b61068c9190612f14565b6106969190612d72565b915081600960008282546106aa9190612f6e565b9250508190555086826106bd9190612d1c565b9250600560009054906101000a900473ffffffffffffffffffffffffffffffffffffffff1673ffffffffffffffffffffffffffffffffffffffff1663a9059cbb338789888861070c9190612f6e565b6107169190612f6e565b6107209190612f6e565b6040518363ffffffff1660e01b815260040161073d929190612a0c565b602060405180830381600087803b15801561075757600080fd5b505af115801561076b573d6000803e3d6000fd5b505050506040513d601f19601f8201168201806040525081019061078f91906126e0565b5061079a33886117fd565b600560009054906101000a900473ffffffffffffffffffffffffffffffffffffffff1673ffffffffffffffffffffffffffffffffffffffff1663a9059cbb600760009054906101000a900473ffffffffffffffffffffffffffffffffffffffff16886040518363ffffffff1660e01b8152600401610819929190612a0c565b602060405180830381600087803b15801561083357600080fd5b505af1158015610847573d6000803e3d6000fd5b505050506040513d601f19601f8201168201806040525081019061086b91906126e0565b50600560009054906101000a900473ffffffffffffffffffffffffffffffffffffffff1673ffffffffffffffffffffffffffffffffffffffff1663a9059cbb600a60009054906101000a900473ffffffffffffffffffffffffffffffffffffffff16876040518363ffffffff1660e01b81526004016108eb929190612a0c565b602060405180830381600087803b15801561090557600080fd5b505af1158015610919573d6000803e3d6000fd5b505050506040513d601f19601f8201168201806040525081019061093d91906126e0565b5061094833886119d4565b5091939590929450565b60006012905090565b60006109fd6109686113a9565b8484600160006109766113a9565b73ffffffffffffffffffffffffffffffffffffffff1673ffffffffffffffffffffffffffffffffffffffff16815260200190815260200160002060008873ffffffffffffffffffffffffffffffffffffffff1673ffffffffffffffffffffffffffffffffffffffff168152602001908152602001600020546109f89190612d1c565b6113b1565b6001905092915050565b6000600954905090565b600860009054906101000a900473ffffffffffffffffffffffffffffffffffffffff1673ffffffffffffffffffffffffffffffffffffffff163373ffffffffffffffffffffffffffffffffffffffff1614610aa1576040517f08c379a0000000000000000000000000000000000000000000000000000000008152600401610a9890612b12565b60405180910390fd5b80600560009054906101000a900473ffffffffffffffffffffffffffffffffffffffff1673ffffffffffffffffffffffffffffffffffffffff166370a08231336040518263ffffffff1660e01b8152600401610afd91906129ba565b60206040518083038186803b158015610b1557600080fd5b505afa158015610b29573d6000803e3d6000fd5b505050506040513d601f19601f82011682018060405250810190610b4d9190612732565b1015610b8e576040517f08c379a0000000000000000000000000000000000000000000000000000000008152600401610b8590612bd2565b60405180910390fd5b6000610b9942611c61565b905060005b600680549050811015610d04576000610bb78242611ed6565b90506000838286610bc89190612f14565b610bd29190612d72565b9050600560009054906101000a900473ffffffffffffffffffffffffffffffffffffffff1673ffffffffffffffffffffffffffffffffffffffff1663a9059cbb60068581548110610c4c577f4e487b7100000000000000000000000000000000000000000000000000000000600052603260045260246000fd5b906000526020600020906004020160030160009054906101000a900473ffffffffffffffffffffffffffffffffffffffff16836040518363ffffffff1660e01b8152600401610c9c929190612a0c565b602060405180830381600087803b158015610cb657600080fd5b505af1158015610cca573d6000803e3d6000fd5b505050506040513d601f19601f82011682018060405250810190610cee91906126e0565b5050508080610cfc9061305c565b915050610b9e565b50610d0d612022565b5050565b60008060008373ffffffffffffffffffffffffffffffffffffffff1673ffffffffffffffffffffffffffffffffffffffff168152602001908152602001600020549050919050565b606060048054610d689061302a565b80601f0160208091040260200160405190810160405280929190818152602001828054610d949061302a565b8015610de15780601f10610db657610100808354040283529160200191610de1565b820191906000526020600020905b815481529060010190602001808311610dc457829003601f168201915b5050505050905090565b60008060016000610dfa6113a9565b73ffffffffffffffffffffffffffffffffffffffff1673ffffffffffffffffffffffffffffffffffffffff16815260200190815260200160002060008573ffffffffffffffffffffffffffffffffffffffff1673ffffffffffffffffffffffffffffffffffffffff16815260200190815260200160002054905082811015610eb7576040517f08c379a0000000000000000000000000000000000000000000000000000000008152600401610eae90612bf2565b60405180910390fd5b610ecb610ec26113a9565b858584036113b1565b600191505092915050565b60008060008084600560009054906101000a900473ffffffffffffffffffffffffffffffffffffffff1673ffffffffffffffffffffffffffffffffffffffff166370a08231336040518263ffffffff1660e01b8152600401610f3891906129ba565b60206040518083038186803b158015610f5057600080fd5b505afa158015610f64573d6000803e3d6000fd5b505050506040513d601f19601f82011682018060405250810190610f889190612732565b1015610fc9576040517f08c379a0000000000000000000000000000000000000000000000000000000008152600401610fc090612b52565b60405180910390fd5b612710600b5486610fda9190612f14565b610fe49190612d72565b92508260096000828254610ff89190612d1c565b92505081905550612710600c54866110109190612f14565b61101a9190612d72565b915081600e600082825461102e9190612d1c565b92505081905550612710600d54866110469190612f14565b6110509190612d72565b905080828461105f9190612d1c565b6110699190612d1c565b856110749190612f6e565b935061108033856122fc565b61108d426000863361245c565b600560009054906101000a900473ffffffffffffffffffffffffffffffffffffffff1673ffffffffffffffffffffffffffffffffffffffff166323b872dd33600760009054906101000a900473ffffffffffffffffffffffffffffffffffffffff16856040518463ffffffff1660e01b815260040161110e939291906129d5565b602060405180830381600087803b15801561112857600080fd5b505af115801561113c573d6000803e3d6000fd5b505050506040513d601f19601f8201168201806040525081019061116091906126e0565b50600560009054906101000a900473ffffffffffffffffffffffffffffffffffffffff1673ffffffffffffffffffffffffffffffffffffffff166323b872dd33600a60009054906101000a900473ffffffffffffffffffffffffffffffffffffffff16846040518463ffffffff1660e01b81526004016111e2939291906129d5565b602060405180830381600087803b1580156111fc57600080fd5b505af1158015611210573d6000803e3d6000fd5b505050506040513d601f19601f8201168201806040525081019061123491906126e0565b50600560009054906101000a900473ffffffffffffffffffffffffffffffffffffffff1673ffffffffffffffffffffffffffffffffffffffff166323b872dd333085858a6112829190612f6e565b61128c9190612f6e565b6040518463ffffffff1660e01b81526004016112aa939291906129d5565b602060405180830381600087803b1580156112c457600080fd5b505af11580156112d8573d6000803e3d6000fd5b505050506040513d601f19601f820116820180604052508101906112fc91906126e0565b509193509193565b60006113186113116113a9565b848461157c565b6001905092915050565b6000600160008473ffffffffffffffffffffffffffffffffffffffff1673ffffffffffffffffffffffffffffffffffffffff16815260200190815260200160002060008373ffffffffffffffffffffffffffffffffffffffff1673ffffffffffffffffffffffffffffffffffffffff16815260200190815260200160002054905092915050565b600033905090565b600073ffffffffffffffffffffffffffffffffffffffff168373ffffffffffffffffffffffffffffffffffffffff161415611421576040517f08c379a000000000000000000000000000000000000000000000000000000000815260040161141890612bb2565b60405180910390fd5b600073ffffffffffffffffffffffffffffffffffffffff168273ffffffffffffffffffffffffffffffffffffffff161415611491576040517f08c379a000000000000000000000000000000000000000000000000000000000815260040161148890612ad2565b60405180910390fd5b80600160008573ffffffffffffffffffffffffffffffffffffffff1673ffffffffffffffffffffffffffffffffffffffff16815260200190815260200160002060008473ffffffffffffffffffffffffffffffffffffffff1673ffffffffffffffffffffffffffffffffffffffff168152602001908152602001600020819055508173ffffffffffffffffffffffffffffffffffffffff168373ffffffffffffffffffffffffffffffffffffffff167f8c5be1e5ebec7d5bd14f71427d1e84f3dd0314c0f7b2291e5b200ac8c7c3b9258360405161156f9190612c32565b60405180910390a3505050565b600073ffffffffffffffffffffffffffffffffffffffff168373ffffffffffffffffffffffffffffffffffffffff1614156115ec576040517f08c379a00000000000000000000000000000000000000000000000000000000081526004016115e390612b92565b60405180910390fd5b600073ffffffffffffffffffffffffffffffffffffffff168273ffffffffffffffffffffffffffffffffffffffff16141561165c576040517f08c379a000000000000000000000000000000000000000000000000000000000815260040161165390612a72565b60405180910390fd5b611667838383612554565b60008060008573ffffffffffffffffffffffffffffffffffffffff1673ffffffffffffffffffffffffffffffffffffffff168152602001908152602001600020549050818110156116ed576040517f08c379a00000000000000000000000000000000000000000000000000000000081526004016116e490612af2565b60405180910390fd5b8181036000808673ffffffffffffffffffffffffffffffffffffffff1673ffffffffffffffffffffffffffffffffffffffff16815260200190815260200160002081905550816000808573ffffffffffffffffffffffffffffffffffffffff1673ffffffffffffffffffffffffffffffffffffffff16815260200190815260200160002060008282546117809190612d1c565b925050819055508273ffffffffffffffffffffffffffffffffffffffff168473ffffffffffffffffffffffffffffffffffffffff167fddf252ad1be2c89b69c2b068fc378daa952ba7f163c4a11628f55a4df523b3ef846040516117e49190612c32565b60405180910390a36117f7848484612559565b50505050565b600073ffffffffffffffffffffffffffffffffffffffff168273ffffffffffffffffffffffffffffffffffffffff16141561186d576040517f08c379a000000000000000000000000000000000000000000000000000000000815260040161186490612b72565b60405180910390fd5b61187982600083612554565b60008060008473ffffffffffffffffffffffffffffffffffffffff1673ffffffffffffffffffffffffffffffffffffffff168152602001908152602001600020549050818110156118ff576040517f08c379a00000000000000000000000000000000000000000000000000000000081526004016118f690612ab2565b60405180910390fd5b8181036000808573ffffffffffffffffffffffffffffffffffffffff1673ffffffffffffffffffffffffffffffffffffffff1681526020019081526020016000208190555081600260008282546119569190612f6e565b92505081905550600073ffffffffffffffffffffffffffffffffffffffff168373ffffffffffffffffffffffffffffffffffffffff167fddf252ad1be2c89b69c2b068fc378daa952ba7f163c4a11628f55a4df523b3ef846040516119bb9190612c32565b60405180910390a36119cf83600084612559565b505050565b6000805b600680549050811015611c5b578373ffffffffffffffffffffffffffffffffffffffff1660068281548110611a36577f4e487b7100000000000000000000000000000000000000000000000000000000600052603260045260246000fd5b906000526020600020906004020160030160009054906101000a900473ffffffffffffffffffffffffffffffffffffffff1673ffffffffffffffffffffffffffffffffffffffff161415611c48578260068281548110611abf577f4e487b7100000000000000000000000000000000000000000000000000000000600052603260045260246000fd5b90600052602060002090600402016002015483611adc9190612d1c565b11611b8f574260068281548110611b1c577f4e487b7100000000000000000000000000000000000000000000000000000000600052603260045260246000fd5b90600052602060002090600402016001018190555060068181548110611b6b577f4e487b7100000000000000000000000000000000000000000000000000000000600052603260045260246000fd5b90600052602060002090600402016002015482611b889190612d1c565b9150611c47565b60008360068381548110611bcc577f4e487b7100000000000000000000000000000000000000000000000000000000600052603260045260246000fd5b90600052602060002090600402016002015484611be99190612d1c565b611bf39190612f6e565b90508060068381548110611c30577f4e487b7100000000000000000000000000000000000000000000000000000000600052603260045260246000fd5b906000526020600020906004020160020181905550505b5b8080611c539061305c565b9150506119d8565b50505050565b6000806000905060005b600680549050811015611ecc57600060068281548110611cb4577f4e487b7100000000000000000000000000000000000000000000000000000000600052603260045260246000fd5b9060005260206000209060040201600101541115611dea5760006201518060068381548110611d0c577f4e487b7100000000000000000000000000000000000000000000000000000000600052603260045260246000fd5b90600052602060002090600402016000015460068481548110611d58577f4e487b7100000000000000000000000000000000000000000000000000000000600052603260045260246000fd5b906000526020600020906004020160010154611d749190612f6e565b611d7e9190612d72565b905060068281548110611dba577f4e487b7100000000000000000000000000000000000000000000000000000000600052603260045260246000fd5b90600052602060002090600402016002015481611dd79190612f14565b83611de29190612d1c565b925050611eb9565b60006201518060068381548110611e2a577f4e487b7100000000000000000000000000000000000000000000000000000000600052603260045260246000fd5b90600052602060002090600402016000015486611e479190612f6e565b611e519190612d72565b905060068281548110611e8d577f4e487b7100000000000000000000000000000000000000000000000000000000600052603260045260246000fd5b90600052602060002090600402016002015481611eaa9190612f14565b83611eb59190612d1c565b9250505b8080611ec49061305c565b915050611c6b565b5080915050919050565b60008060068481548110611f13577f4e487b7100000000000000000000000000000000000000000000000000000000600052603260045260246000fd5b90600052602060002090600402016040518060800160405290816000820154815260200160018201548152602001600282015481526020016003820160009054906101000a900473ffffffffffffffffffffffffffffffffffffffff1673ffffffffffffffffffffffffffffffffffffffff1673ffffffffffffffffffffffffffffffffffffffff1681525050905060009150600081602001511415611fe757806040015162015180826000015185611fcc9190612f6e565b611fd69190612d72565b611fe09190612f14565b915061201b565b806040015162015180826000015183602001516120049190612f6e565b61200e9190612d72565b6120189190612f14565b91505b5092915050565b60005b6006805490508110156122f95760006006828154811061206e577f4e487b7100000000000000000000000000000000000000000000000000000000600052603260045260246000fd5b9060005260206000209060040201600101541115612244576006600160068054905061209a9190612f6e565b815481106120d1577f4e487b7100000000000000000000000000000000000000000000000000000000600052603260045260246000fd5b906000526020600020906004020160068281548110612119577f4e487b7100000000000000000000000000000000000000000000000000000000600052603260045260246000fd5b90600052602060002090600402016000820154816000015560018201548160010155600282015481600201556003820160009054906101000a900473ffffffffffffffffffffffffffffffffffffffff168160030160006101000a81548173ffffffffffffffffffffffffffffffffffffffff021916908373ffffffffffffffffffffffffffffffffffffffff16021790555090505060068054806121e7577f4e487b7100000000000000000000000000000000000000000000000000000000600052603160045260246000fd5b6001900381819060005260206000209060040201600080820160009055600182016000905560028201600090556003820160006101000a81549073ffffffffffffffffffffffffffffffffffffffff0219169055505090556122e6565b426006828154811061227f577f4e487b7100000000000000000000000000000000000000000000000000000000600052603260045260246000fd5b9060005260206000209060040201600001819055506000600682815481106122d0577f4e487b7100000000000000000000000000000000000000000000000000000000600052603260045260246000fd5b9060005260206000209060040201600101819055505b80806122f19061305c565b915050612025565b50565b600073ffffffffffffffffffffffffffffffffffffffff168273ffffffffffffffffffffffffffffffffffffffff16141561236c576040517f08c379a000000000000000000000000000000000000000000000000000000000815260040161236390612c12565b60405180910390fd5b61237860008383612554565b806002600082825461238a9190612d1c565b92505081905550806000808473ffffffffffffffffffffffffffffffffffffffff1673ffffffffffffffffffffffffffffffffffffffff16815260200190815260200160002060008282546123df9190612d1c565b925050819055508173ffffffffffffffffffffffffffffffffffffffff16600073ffffffffffffffffffffffffffffffffffffffff167fddf252ad1be2c89b69c2b068fc378daa952ba7f163c4a11628f55a4df523b3ef836040516124449190612c32565b60405180910390a361245860008383612559565b5050565b61246461255e565b84816000018181525050838160200181815250508281604001818152505081816060019073ffffffffffffffffffffffffffffffffffffffff16908173ffffffffffffffffffffffffffffffffffffffff1681525050600681908060018154018082558091505060019003906000526020600020906004020160009091909190915060008201518160000155602082015181600101556040820151816002015560608201518160030160006101000a81548173ffffffffffffffffffffffffffffffffffffffff021916908373ffffffffffffffffffffffffffffffffffffffff16021790555050505050505050565b505050565b505050565b6040518060800160405280600081526020016000815260200160008152602001600073ffffffffffffffffffffffffffffffffffffffff1681525090565b6000813590506125ab81613556565b92915050565b6000815190506125c08161356d565b92915050565b6000813590506125d581613584565b92915050565b6000815190506125ea81613584565b92915050565b60006020828403121561260257600080fd5b60006126108482850161259c565b91505092915050565b6000806040838503121561262c57600080fd5b600061263a8582860161259c565b925050602061264b8582860161259c565b9150509250929050565b60008060006060848603121561266a57600080fd5b60006126788682870161259c565b93505060206126898682870161259c565b925050604061269a868287016125c6565b9150509250925092565b600080604083850312156126b757600080fd5b60006126c58582860161259c565b92505060206126d6858286016125c6565b9150509250929050565b6000602082840312156126f257600080fd5b6000612700848285016125b1565b91505092915050565b60006020828403121561271b57600080fd5b6000612729848285016125c6565b91505092915050565b60006020828403121561274457600080fd5b6000612752848285016125db565b91505092915050565b61276481612fa2565b82525050565b61277381612fb4565b82525050565b600061278482612d00565b61278e8185612d0b565b935061279e818560208601612ff7565b6127a781613132565b840191505092915050565b60006127bf602383612d0b565b91506127ca82613150565b604082019050919050565b60006127e2601783612d0b565b91506127ed8261319f565b602082019050919050565b6000612805602283612d0b565b9150612810826131c8565b604082019050919050565b6000612828602283612d0b565b915061283382613217565b604082019050919050565b600061284b602683612d0b565b915061285682613266565b604082019050919050565b600061286e603983612d0b565b9150612879826132b5565b604082019050919050565b6000612891602883612d0b565b915061289c82613304565b604082019050919050565b60006128b4602583612d0b565b91506128bf82613353565b604082019050919050565b60006128d7602183612d0b565b91506128e2826133a2565b604082019050919050565b60006128fa602583612d0b565b9150612905826133f1565b604082019050919050565b600061291d602483612d0b565b915061292882613440565b604082019050919050565b6000612940602883612d0b565b915061294b8261348f565b604082019050919050565b6000612963602583612d0b565b915061296e826134de565b604082019050919050565b6000612986601f83612d0b565b91506129918261352d565b602082019050919050565b6129a581612fe0565b82525050565b6129b481612fea565b82525050565b60006020820190506129cf600083018461275b565b92915050565b60006060820190506129ea600083018661275b565b6129f7602083018561275b565b612a04604083018461299c565b949350505050565b6000604082019050612a21600083018561275b565b612a2e602083018461299c565b9392505050565b6000602082019050612a4a600083018461276a565b92915050565b60006020820190508181036000830152612a6a8184612779565b905092915050565b60006020820190508181036000830152612a8b816127b2565b9050919050565b60006020820190508181036000830152612aab816127d5565b9050919050565b60006020820190508181036000830152612acb816127f8565b9050919050565b60006020820190508181036000830152612aeb8161281b565b9050919050565b60006020820190508181036000830152612b0b8161283e565b9050919050565b60006020820190508181036000830152612b2b81612861565b9050919050565b60006020820190508181036000830152612b4b81612884565b9050919050565b60006020820190508181036000830152612b6b816128a7565b9050919050565b60006020820190508181036000830152612b8b816128ca565b9050919050565b60006020820190508181036000830152612bab816128ed565b9050919050565b60006020820190508181036000830152612bcb81612910565b9050919050565b60006020820190508181036000830152612beb81612933565b9050919050565b60006020820190508181036000830152612c0b81612956565b9050919050565b60006020820190508181036000830152612c2b81612979565b9050919050565b6000602082019050612c47600083018461299c565b92915050565b6000608082019050612c62600083018761299c565b612c6f602083018661299c565b612c7c604083018561299c565b612c89606083018461299c565b95945050505050565b600060a082019050612ca7600083018861299c565b612cb4602083018761299c565b612cc1604083018661299c565b612cce606083018561299c565b612cdb608083018461299c565b9695505050505050565b6000602082019050612cfa60008301846129ab565b92915050565b600081519050919050565b600082825260208201905092915050565b6000612d2782612fe0565b9150612d3283612fe0565b9250827fffffffffffffffffffffffffffffffffffffffffffffffffffffffffffffffff03821115612d6757612d666130a5565b5b828201905092915050565b6000612d7d82612fe0565b9150612d8883612fe0565b925082612d9857612d976130d4565b5b828204905092915050565b6000808291508390505b6001851115612ded57808604811115612dc957612dc86130a5565b5b6001851615612dd85780820291505b8081029050612de685613143565b9450612dad565b94509492505050565b6000612e0182612fe0565b9150612e0c83612fea565b9250612e397fffffffffffffffffffffffffffffffffffffffffffffffffffffffffffffffff8484612e41565b905092915050565b600082612e515760019050612f0d565b81612e5f5760009050612f0d565b8160018114612e755760028114612e7f57612eae565b6001915050612f0d565b60ff841115612e9157612e906130a5565b5b8360020a915084821115612ea857612ea76130a5565b5b50612f0d565b5060208310610133831016604e8410600b8410161715612ee35782820a905083811115612ede57612edd6130a5565b5b612f0d565b612ef08484846001612da3565b92509050818404811115612f0757612f066130a5565b5b81810290505b9392505050565b6000612f1f82612fe0565b9150612f2a83612fe0565b9250817fffffffffffffffffffffffffffffffffffffffffffffffffffffffffffffffff0483118215151615612f6357612f626130a5565b5b828202905092915050565b6000612f7982612fe0565b9150612f8483612fe0565b925082821015612f9757612f966130a5565b5b828203905092915050565b6000612fad82612fc0565b9050919050565b60008115159050919050565b600073ffffffffffffffffffffffffffffffffffffffff82169050919050565b6000819050919050565b600060ff82169050919050565b60005b83811015613015578082015181840152602081019050612ffa565b83811115613024576000848401525b50505050565b6000600282049050600182168061304257607f821691505b6020821081141561305657613055613103565b5b50919050565b600061306782612fe0565b91507fffffffffffffffffffffffffffffffffffffffffffffffffffffffffffffffff82141561309a576130996130a5565b5b600182019050919050565b7f4e487b7100000000000000000000000000000000000000000000000000000000600052601160045260246000fd5b7f4e487b7100000000000000000000000000000000000000000000000000000000600052601260045260246000fd5b7f4e487b7100000000000000000000000000000000000000000000000000000000600052602260045260246000fd5b6000601f19601f8301169050919050565b60008160011c9050919050565b7f45524332303a207472616e7366657220746f20746865207a65726f206164647260008201527f6573730000000000000000000000000000000000000000000000000000000000602082015250565b7f496e73756666696369656e74207374616b656420564c52000000000000000000600082015250565b7f45524332303a206275726e20616d6f756e7420657863656564732062616c616e60008201527f6365000000000000000000000000000000000000000000000000000000000000602082015250565b7f45524332303a20617070726f766520746f20746865207a65726f20616464726560008201527f7373000000000000000000000000000000000000000000000000000000000000602082015250565b7f45524332303a207472616e7366657220616d6f756e742065786365656473206260008201527f616c616e63650000000000000000000000000000000000000000000000000000602082015250565b7f4f6e6c792064657369676e61746564206469737472696275746f722063616e2060008201527f6d616b652072657761726420646973747269627574696f6e7300000000000000602082015250565b7f45524332303a207472616e7366657220616d6f756e742065786365656473206160008201527f6c6c6f77616e6365000000000000000000000000000000000000000000000000602082015250565b7f496e73756666696369656e7420656e746572707269736520746f6b656e20626160008201527f6c616e6365000000000000000000000000000000000000000000000000000000602082015250565b7f45524332303a206275726e2066726f6d20746865207a65726f2061646472657360008201527f7300000000000000000000000000000000000000000000000000000000000000602082015250565b7f45524332303a207472616e736665722066726f6d20746865207a65726f20616460008201527f6472657373000000000000000000000000000000000000000000000000000000602082015250565b7f45524332303a20617070726f76652066726f6d20746865207a65726f2061646460008201527f7265737300000000000000000000000000000000000000000000000000000000602082015250565b7f43616e6e6f742064697374726962757465206d6f726520746f6b656e7320746860008201527f616e206f776e6564000000000000000000000000000000000000000000000000602082015250565b7f45524332303a2064656372656173656420616c6c6f77616e63652062656c6f7760008201527f207a65726f000000000000000000000000000000000000000000000000000000602082015250565b7f45524332303a206d696e7420746f20746865207a65726f206164647265737300600082015250565b61355f81612fa2565b811461356a57600080fd5b50565b61357681612fb4565b811461358157600080fd5b50565b61358d81612fe0565b811461359857600080fd5b5056fea2646970667358221220d4486a39aca843f00211b4a3157f721759d55269da1a676e440e8e54c0d0bc0764736f6c63430008040033",
  "devdoc": {
    "kind": "dev",
    "methods": {
      "allowance(address,address)": {
        "details": "See {IERC20-allowance}."
      },
      "approve(address,uint256)": {
        "details": "See {IERC20-approve}. Requirements: - `spender` cannot be the zero address."
      },
      "balanceOf(address)": {
        "details": "See {IERC20-balanceOf}."
      },
      "decimals()": {
        "details": "Returns the number of decimals used to get its user representation. For example, if `decimals` equals `2`, a balance of `505` tokens should be displayed to a user as `5.05` (`505 / 10 ** 2`). Tokens usually opt for a value of 18, imitating the relationship between Ether and Wei. This is the value {ERC20} uses, unless this function is overridden; NOTE: This information is only used for _display_ purposes: it in no way affects any of the arithmetic of the contract, including {IERC20-balanceOf} and {IERC20-transfer}."
      },
      "decreaseAllowance(address,uint256)": {
        "details": "Atomically decreases the allowance granted to `spender` by the caller. This is an alternative to {approve} that can be used as a mitigation for problems described in {IERC20-approve}. Emits an {Approval} event indicating the updated allowance. Requirements: - `spender` cannot be the zero address. - `spender` must have allowance for the caller of at least `subtractedValue`."
      },
      "increaseAllowance(address,uint256)": {
        "details": "Atomically increases the allowance granted to `spender` by the caller. This is an alternative to {approve} that can be used as a mitigation for problems described in {IERC20-approve}. Emits an {Approval} event indicating the updated allowance. Requirements: - `spender` cannot be the zero address."
      },
      "name()": {
        "details": "Returns the name of the token."
      },
      "symbol()": {
        "details": "Returns the symbol of the token, usually a shorter version of the name."
      },
      "totalSupply()": {
        "details": "See {IERC20-totalSupply}."
      },
      "transfer(address,uint256)": {
        "details": "See {IERC20-transfer}. Requirements: - `recipient` cannot be the zero address. - the caller must have a balance of at least `amount`."
      },
      "transferFrom(address,address,uint256)": {
        "details": "See {IERC20-transferFrom}. Emits an {Approval} event indicating the updated allowance. This is not required by the EIP. See the note at the beginning of {ERC20}. Requirements: - `sender` and `recipient` cannot be the zero address. - `sender` must have a balance of at least `amount`. - the caller must have allowance for ``sender``'s tokens of at least `amount`."
      }
    },
    "version": 1
  },
  "userdoc": {
    "kind": "user",
    "methods": {},
    "version": 1
  },
  "storageLayout": {
    "storage": [
      {
        "astId": 15,
        "contract": "contracts/EvlrStaker.sol:EvlrStaker",
        "label": "_balances",
        "offset": 0,
        "slot": "0",
        "type": "t_mapping(t_address,t_uint256)"
      },
      {
        "astId": 21,
        "contract": "contracts/EvlrStaker.sol:EvlrStaker",
        "label": "_allowances",
        "offset": 0,
        "slot": "1",
        "type": "t_mapping(t_address,t_mapping(t_address,t_uint256))"
      },
      {
        "astId": 23,
        "contract": "contracts/EvlrStaker.sol:EvlrStaker",
        "label": "_totalSupply",
        "offset": 0,
        "slot": "2",
        "type": "t_uint256"
      },
      {
        "astId": 25,
        "contract": "contracts/EvlrStaker.sol:EvlrStaker",
        "label": "_name",
        "offset": 0,
        "slot": "3",
        "type": "t_string_storage"
      },
      {
        "astId": 27,
        "contract": "contracts/EvlrStaker.sol:EvlrStaker",
        "label": "_symbol",
        "offset": 0,
        "slot": "4",
        "type": "t_string_storage"
      },
      {
        "astId": 682,
        "contract": "contracts/EvlrStaker.sol:EvlrStaker",
        "label": "eVlrContract",
        "offset": 0,
        "slot": "5",
        "type": "t_contract(ERC20)545"
      },
      {
        "astId": 686,
        "contract": "contracts/EvlrStaker.sol:EvlrStaker",
        "label": "stakes",
        "offset": 0,
        "slot": "6",
        "type": "t_array(t_struct(StakerBag)766_storage)dyn_storage"
      },
      {
        "astId": 688,
        "contract": "contracts/EvlrStaker.sol:EvlrStaker",
        "label": "charityBagAddress",
        "offset": 0,
        "slot": "7",
        "type": "t_address"
      },
      {
        "astId": 690,
        "contract": "contracts/EvlrStaker.sol:EvlrStaker",
        "label": "distributor",
        "offset": 0,
        "slot": "8",
        "type": "t_address"
      },
      {
        "astId": 692,
        "contract": "contracts/EvlrStaker.sol:EvlrStaker",
        "label": "stakingRewardsBag",
        "offset": 0,
        "slot": "9",
        "type": "t_uint256"
      },
      {
        "astId": 695,
        "contract": "contracts/EvlrStaker.sol:EvlrStaker",
        "label": "burnAddress",
        "offset": 0,
        "slot": "10",
        "type": "t_address"
      },
      {
        "astId": 697,
        "contract": "contracts/EvlrStaker.sol:EvlrStaker",
        "label": "stakingFee",
        "offset": 0,
        "slot": "11",
        "type": "t_uint256"
      },
      {
        "astId": 699,
        "contract": "contracts/EvlrStaker.sol:EvlrStaker",
        "label": "charityFee",
        "offset": 0,
        "slot": "12",
        "type": "t_uint256"
      },
      {
        "astId": 701,
        "contract": "contracts/EvlrStaker.sol:EvlrStaker",
        "label": "burnFee",
        "offset": 0,
        "slot": "13",
        "type": "t_uint256"
      },
      {
        "astId": 703,
        "contract": "contracts/EvlrStaker.sol:EvlrStaker",
        "label": "totalCharityCollected",
        "offset": 0,
        "slot": "14",
        "type": "t_uint256"
      }
    ],
    "types": {
      "t_address": {
        "encoding": "inplace",
        "label": "address",
        "numberOfBytes": "20"
      },
      "t_array(t_struct(StakerBag)766_storage)dyn_storage": {
        "base": "t_struct(StakerBag)766_storage",
        "encoding": "dynamic_array",
        "label": "struct EvlrStaker.StakerBag[]",
        "numberOfBytes": "32"
      },
      "t_contract(ERC20)545": {
        "encoding": "inplace",
        "label": "contract ERC20",
        "numberOfBytes": "20"
      },
      "t_mapping(t_address,t_mapping(t_address,t_uint256))": {
        "encoding": "mapping",
        "key": "t_address",
        "label": "mapping(address => mapping(address => uint256))",
        "numberOfBytes": "32",
        "value": "t_mapping(t_address,t_uint256)"
      },
      "t_mapping(t_address,t_uint256)": {
        "encoding": "mapping",
        "key": "t_address",
        "label": "mapping(address => uint256)",
        "numberOfBytes": "32",
        "value": "t_uint256"
      },
      "t_string_storage": {
        "encoding": "bytes",
        "label": "string",
        "numberOfBytes": "32"
      },
      "t_struct(StakerBag)766_storage": {
        "encoding": "inplace",
        "label": "struct EvlrStaker.StakerBag",
        "members": [
          {
            "astId": 759,
            "contract": "contracts/EvlrStaker.sol:EvlrStaker",
            "label": "startTime",
            "offset": 0,
            "slot": "0",
            "type": "t_uint256"
          },
          {
            "astId": 761,
            "contract": "contracts/EvlrStaker.sol:EvlrStaker",
            "label": "stopTime",
            "offset": 0,
            "slot": "1",
            "type": "t_uint256"
          },
          {
            "astId": 763,
            "contract": "contracts/EvlrStaker.sol:EvlrStaker",
            "label": "stakedTokens",
            "offset": 0,
            "slot": "2",
            "type": "t_uint256"
          },
          {
            "astId": 765,
            "contract": "contracts/EvlrStaker.sol:EvlrStaker",
            "label": "ownerAddress",
            "offset": 0,
            "slot": "3",
            "type": "t_address"
          }
        ],
        "numberOfBytes": "128"
      },
      "t_uint256": {
        "encoding": "inplace",
        "label": "uint256",
        "numberOfBytes": "32"
      }
    }
  }
}