{
  "address": "0xf9D03994C57c89e4a7f46e4F946734191933a502",
  "abi": [
    {
      "inputs": [
        {
          "internalType": "string",
          "name": "_tokenName",
          "type": "string"
        },
        {
          "internalType": "string",
          "name": "_symbol",
          "type": "string"
        },
        {
          "internalType": "address",
          "name": "_eVlrContractAddress",
          "type": "address"
        },
        {
          "internalType": "address",
          "name": "_charityBagAddress",
          "type": "address"
        },
        {
          "internalType": "address",
          "name": "_distributorAddress",
          "type": "address"
        },
        {
          "internalType": "uint256",
          "name": "_stakingFee",
          "type": "uint256"
        },
        {
          "internalType": "uint256",
          "name": "_charityFee",
          "type": "uint256"
        },
        {
          "internalType": "uint256",
          "name": "_burnFee",
          "type": "uint256"
        }
      ],
      "stateMutability": "nonpayable",
      "type": "constructor"
    },
    {
      "anonymous": false,
      "inputs": [
        {
          "indexed": true,
          "internalType": "address",
          "name": "owner",
          "type": "address"
        },
        {
          "indexed": true,
          "internalType": "address",
          "name": "spender",
          "type": "address"
        },
        {
          "indexed": false,
          "internalType": "uint256",
          "name": "value",
          "type": "uint256"
        }
      ],
      "name": "Approval",
      "type": "event"
    },
    {
      "anonymous": false,
      "inputs": [
        {
          "indexed": true,
          "internalType": "address",
          "name": "from",
          "type": "address"
        },
        {
          "indexed": true,
          "internalType": "address",
          "name": "to",
          "type": "address"
        },
        {
          "indexed": false,
          "internalType": "uint256",
          "name": "value",
          "type": "uint256"
        }
      ],
      "name": "Transfer",
      "type": "event"
    },
    {
      "inputs": [
        {
          "internalType": "address",
          "name": "owner",
          "type": "address"
        },
        {
          "internalType": "address",
          "name": "spender",
          "type": "address"
        }
      ],
      "name": "allowance",
      "outputs": [
        {
          "internalType": "uint256",
          "name": "",
          "type": "uint256"
        }
      ],
      "stateMutability": "view",
      "type": "function"
    },
    {
      "inputs": [
        {
          "internalType": "address",
          "name": "spender",
          "type": "address"
        },
        {
          "internalType": "uint256",
          "name": "amount",
          "type": "uint256"
        }
      ],
      "name": "approve",
      "outputs": [
        {
          "internalType": "bool",
          "name": "",
          "type": "bool"
        }
      ],
      "stateMutability": "nonpayable",
      "type": "function"
    },
    {
      "inputs": [
        {
          "internalType": "address",
          "name": "account",
          "type": "address"
        }
      ],
      "name": "balanceOf",
      "outputs": [
        {
          "internalType": "uint256",
          "name": "",
          "type": "uint256"
        }
      ],
      "stateMutability": "view",
      "type": "function"
    },
    {
      "inputs": [],
      "name": "decimals",
      "outputs": [
        {
          "internalType": "uint8",
          "name": "",
          "type": "uint8"
        }
      ],
      "stateMutability": "view",
      "type": "function"
    },
    {
      "inputs": [
        {
          "internalType": "address",
          "name": "spender",
          "type": "address"
        },
        {
          "internalType": "uint256",
          "name": "subtractedValue",
          "type": "uint256"
        }
      ],
      "name": "decreaseAllowance",
      "outputs": [
        {
          "internalType": "bool",
          "name": "",
          "type": "bool"
        }
      ],
      "stateMutability": "nonpayable",
      "type": "function"
    },
    {
      "inputs": [
        {
          "internalType": "uint256",
          "name": "rewardTokenValue",
          "type": "uint256"
        }
      ],
      "name": "distributeRewards",
      "outputs": [],
      "stateMutability": "nonpayable",
      "type": "function"
    },
    {
      "inputs": [],
      "name": "getCharityAddress",
      "outputs": [
        {
          "internalType": "address",
          "name": "_charityBagAddress",
          "type": "address"
        }
      ],
      "stateMutability": "view",
      "type": "function"
    },
    {
      "inputs": [],
      "name": "getStakingRewardsBag",
      "outputs": [
        {
          "internalType": "uint256",
          "name": "totalRewards",
          "type": "uint256"
        }
      ],
      "stateMutability": "view",
      "type": "function"
    },
    {
      "inputs": [],
      "name": "getTotalCharityCollected",
      "outputs": [
        {
          "internalType": "uint256",
          "name": "total",
          "type": "uint256"
        }
      ],
      "stateMutability": "view",
      "type": "function"
    },
    {
      "inputs": [
        {
          "internalType": "address",
          "name": "spender",
          "type": "address"
        },
        {
          "internalType": "uint256",
          "name": "addedValue",
          "type": "uint256"
        }
      ],
      "name": "increaseAllowance",
      "outputs": [
        {
          "internalType": "bool",
          "name": "",
          "type": "bool"
        }
      ],
      "stateMutability": "nonpayable",
      "type": "function"
    },
    {
      "inputs": [],
      "name": "name",
      "outputs": [
        {
          "internalType": "string",
          "name": "",
          "type": "string"
        }
      ],
      "stateMutability": "view",
      "type": "function"
    },
    {
      "inputs": [
        {
          "internalType": "uint256",
          "name": "_stakedVlrAmount",
          "type": "uint256"
        }
      ],
      "name": "stake",
      "outputs": [
        {
          "internalType": "uint256",
          "name": "svlrMinted",
          "type": "uint256"
        },
        {
          "internalType": "uint256",
          "name": "stakingFeePaid",
          "type": "uint256"
        },
        {
          "internalType": "uint256",
          "name": "charityFeePaid",
          "type": "uint256"
        },
        {
          "internalType": "uint256",
          "name": "burnFeePaid",
          "type": "uint256"
        }
      ],
      "stateMutability": "nonpayable",
      "type": "function"
    },
    {
      "inputs": [],
      "name": "symbol",
      "outputs": [
        {
          "internalType": "string",
          "name": "",
          "type": "string"
        }
      ],
      "stateMutability": "view",
      "type": "function"
    },
    {
      "inputs": [],
      "name": "totalSupply",
      "outputs": [
        {
          "internalType": "uint256",
          "name": "",
          "type": "uint256"
        }
      ],
      "stateMutability": "view",
      "type": "function"
    },
    {
      "inputs": [
        {
          "internalType": "address",
          "name": "recipient",
          "type": "address"
        },
        {
          "internalType": "uint256",
          "name": "amount",
          "type": "uint256"
        }
      ],
      "name": "transfer",
      "outputs": [
        {
          "internalType": "bool",
          "name": "",
          "type": "bool"
        }
      ],
      "stateMutability": "nonpayable",
      "type": "function"
    },
    {
      "inputs": [
        {
          "internalType": "address",
          "name": "sender",
          "type": "address"
        },
        {
          "internalType": "address",
          "name": "recipient",
          "type": "address"
        },
        {
          "internalType": "uint256",
          "name": "amount",
          "type": "uint256"
        }
      ],
      "name": "transferFrom",
      "outputs": [
        {
          "internalType": "bool",
          "name": "",
          "type": "bool"
        }
      ],
      "stateMutability": "nonpayable",
      "type": "function"
    },
    {
      "inputs": [
        {
          "internalType": "uint256",
          "name": "_unstakedAmount",
          "type": "uint256"
        }
      ],
      "name": "unstake",
      "outputs": [
        {
          "internalType": "uint256",
          "name": "charityFeePaid",
          "type": "uint256"
        },
        {
          "internalType": "uint256",
          "name": "burnFeePaid",
          "type": "uint256"
        },
        {
          "internalType": "uint256",
          "name": "stakingFeePaid",
          "type": "uint256"
        },
        {
          "internalType": "uint256",
          "name": "vlrReturned",
          "type": "uint256"
        },
        {
          "internalType": "uint256",
          "name": "vlrRewardsReturned",
          "type": "uint256"
        }
      ],
      "stateMutability": "nonpayable",
      "type": "function"
    }
  ],
  "transactionHash": "0x1ebc92cc8e0e4b6ee907f4dd7803962b114118696b7353c6f8fd55f2f1098603",
  "args": [
    "Staked EVLR1 Token",
    "SEVLR",
    "0x82Ba66F57D5E419e990767Cf85edfF480350723b",
    "0x232AaA721a1a6e55084bf7B9f39E457F80bDA751",
    "0x8995ae7935Ac2C9267D1D232B13778b94d8794F6",
    270,
    21,
    9
  ],
  "solcInputHash": "0f02f1d66034c6eaeba65e6acba97a31",
  "bytecode": "0x608060405261dead600a60006101000a81548173ffffffffffffffffffffffffffffffffffffffff021916908373ffffffffffffffffffffffffffffffffffffffff1602179055503480156200005457600080fd5b5060405162003bd938038062003bd983398181016040528101906200007a9190620002ee565b87878160039080519060200190620000949291906200019e565b508060049080519060200190620000ad9291906200019e565b50505085600560006101000a81548173ffffffffffffffffffffffffffffffffffffffff021916908373ffffffffffffffffffffffffffffffffffffffff160217905550600060098190555084600760006101000a81548173ffffffffffffffffffffffffffffffffffffffff021916908373ffffffffffffffffffffffffffffffffffffffff16021790555083600860006101000a81548173ffffffffffffffffffffffffffffffffffffffff021916908373ffffffffffffffffffffffffffffffffffffffff16021790555082600b8190555081600c8190555080600d819055505050505050505050620005c5565b828054620001ac90620004b6565b90600052602060002090601f016020900481019282620001d057600085556200021c565b82601f10620001eb57805160ff19168380011785556200021c565b828001600101855582156200021c579182015b828111156200021b578251825591602001919060010190620001fe565b5b5090506200022b91906200022f565b5090565b5b808211156200024a57600081600090555060010162000230565b5090565b6000620002656200025f846200040c565b620003e3565b9050828152602081018484840111156200027e57600080fd5b6200028b84828562000480565b509392505050565b600081519050620002a48162000591565b92915050565b600082601f830112620002bc57600080fd5b8151620002ce8482602086016200024e565b91505092915050565b600081519050620002e881620005ab565b92915050565b600080600080600080600080610100898b0312156200030c57600080fd5b600089015167ffffffffffffffff8111156200032757600080fd5b620003358b828c01620002aa565b985050602089015167ffffffffffffffff8111156200035357600080fd5b620003618b828c01620002aa565b9750506040620003748b828c0162000293565b9650506060620003878b828c0162000293565b95505060806200039a8b828c0162000293565b94505060a0620003ad8b828c01620002d7565b93505060c0620003c08b828c01620002d7565b92505060e0620003d38b828c01620002d7565b9150509295985092959890939650565b6000620003ef62000402565b9050620003fd8282620004ec565b919050565b6000604051905090565b600067ffffffffffffffff8211156200042a576200042962000551565b5b620004358262000580565b9050602081019050919050565b60006200044f8262000456565b9050919050565b600073ffffffffffffffffffffffffffffffffffffffff82169050919050565b6000819050919050565b60005b83811015620004a057808201518184015260208101905062000483565b83811115620004b0576000848401525b50505050565b60006002820490506001821680620004cf57607f821691505b60208210811415620004e657620004e562000522565b5b50919050565b620004f78262000580565b810181811067ffffffffffffffff8211171562000519576200051862000551565b5b80604052505050565b7f4e487b7100000000000000000000000000000000000000000000000000000000600052602260045260246000fd5b7f4e487b7100000000000000000000000000000000000000000000000000000000600052604160045260246000fd5b6000601f19601f8301169050919050565b6200059c8162000442565b8114620005a857600080fd5b50565b620005b68162000476565b8114620005c257600080fd5b50565b61360480620005d56000396000f3fe608060405234801561001057600080fd5b506004361061010b5760003560e01c80634e1fce51116100a257806395d89b411161007157806395d89b41146102d4578063a457c2d7146102f2578063a694fc3a14610322578063a9059cbb14610355578063dd62ed3e146103855761010b565b80634e1fce511461024c57806359974e381461026a57806370a08231146102865780637edd7e4d146102b65761010b565b806323b872dd116100de57806323b872dd1461019a5780632e17de78146101ca578063313ce567146101fe578063395093511461021c5761010b565b806306fdde0314610110578063095ea7b31461012e57806318160ddd1461015e5780631ad063931461017c575b600080fd5b6101186103b5565b6040516101259190612a83565b60405180910390f35b610148600480360381019061014391906126d7565b610447565b6040516101559190612a68565b60405180910390f35b610166610465565b6040516101739190612c65565b60405180910390f35b61018461046f565b60405161019191906129ed565b60405180910390f35b6101b460048036038101906101af9190612688565b610499565b6040516101c19190612a68565b60405180910390f35b6101e460048036038101906101df919061273c565b610591565b6040516101f5959493929190612cc5565b60405180910390f35b61020661097b565b6040516102139190612d18565b60405180910390f35b610236600480360381019061023191906126d7565b610984565b6040516102439190612a68565b60405180910390f35b610254610a30565b6040516102619190612c65565b60405180910390f35b610284600480360381019061027f919061273c565b610a3a565b005b6102a0600480360381019061029b9190612623565b610d3a565b6040516102ad9190612c65565b60405180910390f35b6102be610d82565b6040516102cb9190612c65565b60405180910390f35b6102dc610d8c565b6040516102e99190612a83565b60405180910390f35b61030c600480360381019061030791906126d7565b610e1e565b6040516103199190612a68565b60405180910390f35b61033c6004803603810190610337919061273c565b610f09565b60405161034c9493929190612c80565b60405180910390f35b61036f600480360381019061036a91906126d7565b611337565b60405161037c9190612a68565b60405180910390f35b61039f600480360381019061039a919061264c565b611355565b6040516103ac9190612c65565b60405180910390f35b6060600380546103c49061305d565b80601f01602080910402602001604051908101604052809291908181526020018280546103f09061305d565b801561043d5780601f106104125761010080835404028352916020019161043d565b820191906000526020600020905b81548152906001019060200180831161042057829003601f168201915b5050505050905090565b600061045b6104546113dc565b84846113e4565b6001905092915050565b6000600254905090565b6000600760009054906101000a900473ffffffffffffffffffffffffffffffffffffffff16905090565b60006104a68484846115af565b6000600160008673ffffffffffffffffffffffffffffffffffffffff1673ffffffffffffffffffffffffffffffffffffffff16815260200190815260200160002060006104f16113dc565b73ffffffffffffffffffffffffffffffffffffffff1673ffffffffffffffffffffffffffffffffffffffff16815260200190815260200160002054905082811015610571576040517f08c379a000000000000000000000000000000000000000000000000000000000815260040161056890612b65565b60405180910390fd5b6105858561057d6113dc565b8584036113e4565b60019150509392505050565b6000806000806000856105a333610d3a565b10156105e4576040517f08c379a00000000000000000000000000000000000000000000000000000000081526004016105db90612ac5565b60405180910390fd5b6103e8600b54876105f59190612f47565b6105ff9190612da5565b925082600960008282546106139190612d4f565b92505081905550612710600c548761062b9190612f47565b6106359190612da5565b9450612710600d54876106489190612f47565b6106529190612da5565b9350600061065e610465565b9050868161066c9190612f47565b6002826106799190612e29565b826009546106879190612f47565b6106919190612d4f565b61069b9190612fa1565b8760026009546106ab9190612e29565b6106b59190612f47565b6106bf9190612da5565b915081600960008282546106d39190612fa1565b9250508190555086826106e69190612d4f565b9250600560009054906101000a900473ffffffffffffffffffffffffffffffffffffffff1673ffffffffffffffffffffffffffffffffffffffff1663a9059cbb33878988886107359190612fa1565b61073f9190612fa1565b6107499190612fa1565b6040518363ffffffff1660e01b8152600401610766929190612a3f565b602060405180830381600087803b15801561078057600080fd5b505af1158015610794573d6000803e3d6000fd5b505050506040513d601f19601f820116820180604052508101906107b89190612713565b506107c33388611830565b600560009054906101000a900473ffffffffffffffffffffffffffffffffffffffff1673ffffffffffffffffffffffffffffffffffffffff1663a9059cbb600760009054906101000a900473ffffffffffffffffffffffffffffffffffffffff16886040518363ffffffff1660e01b8152600401610842929190612a3f565b602060405180830381600087803b15801561085c57600080fd5b505af1158015610870573d6000803e3d6000fd5b505050506040513d601f19601f820116820180604052508101906108949190612713565b50600560009054906101000a900473ffffffffffffffffffffffffffffffffffffffff1673ffffffffffffffffffffffffffffffffffffffff1663a9059cbb600a60009054906101000a900473ffffffffffffffffffffffffffffffffffffffff16876040518363ffffffff1660e01b8152600401610914929190612a3f565b602060405180830381600087803b15801561092e57600080fd5b505af1158015610942573d6000803e3d6000fd5b505050506040513d601f19601f820116820180604052508101906109669190612713565b506109713388611a07565b5091939590929450565b60006012905090565b6000610a266109916113dc565b84846001600061099f6113dc565b73ffffffffffffffffffffffffffffffffffffffff1673ffffffffffffffffffffffffffffffffffffffff16815260200190815260200160002060008873ffffffffffffffffffffffffffffffffffffffff1673ffffffffffffffffffffffffffffffffffffffff16815260200190815260200160002054610a219190612d4f565b6113e4565b6001905092915050565b6000600954905090565b600860009054906101000a900473ffffffffffffffffffffffffffffffffffffffff1673ffffffffffffffffffffffffffffffffffffffff163373ffffffffffffffffffffffffffffffffffffffff1614610aca576040517f08c379a0000000000000000000000000000000000000000000000000000000008152600401610ac190612b45565b60405180910390fd5b80600560009054906101000a900473ffffffffffffffffffffffffffffffffffffffff1673ffffffffffffffffffffffffffffffffffffffff166370a08231336040518263ffffffff1660e01b8152600401610b2691906129ed565b60206040518083038186803b158015610b3e57600080fd5b505afa158015610b52573d6000803e3d6000fd5b505050506040513d601f19601f82011682018060405250810190610b769190612765565b1015610bb7576040517f08c379a0000000000000000000000000000000000000000000000000000000008152600401610bae90612c05565b60405180910390fd5b6000610bc242611c94565b905060005b600680549050811015610d2d576000610be08242611f09565b90506000838286610bf19190612f47565b610bfb9190612da5565b9050600560009054906101000a900473ffffffffffffffffffffffffffffffffffffffff1673ffffffffffffffffffffffffffffffffffffffff1663a9059cbb60068581548110610c75577f4e487b7100000000000000000000000000000000000000000000000000000000600052603260045260246000fd5b906000526020600020906004020160030160009054906101000a900473ffffffffffffffffffffffffffffffffffffffff16836040518363ffffffff1660e01b8152600401610cc5929190612a3f565b602060405180830381600087803b158015610cdf57600080fd5b505af1158015610cf3573d6000803e3d6000fd5b505050506040513d601f19601f82011682018060405250810190610d179190612713565b5050508080610d259061308f565b915050610bc7565b50610d36612055565b5050565b60008060008373ffffffffffffffffffffffffffffffffffffffff1673ffffffffffffffffffffffffffffffffffffffff168152602001908152602001600020549050919050565b6000600e54905090565b606060048054610d9b9061305d565b80601f0160208091040260200160405190810160405280929190818152602001828054610dc79061305d565b8015610e145780601f10610de957610100808354040283529160200191610e14565b820191906000526020600020905b815481529060010190602001808311610df757829003601f168201915b5050505050905090565b60008060016000610e2d6113dc565b73ffffffffffffffffffffffffffffffffffffffff1673ffffffffffffffffffffffffffffffffffffffff16815260200190815260200160002060008573ffffffffffffffffffffffffffffffffffffffff1673ffffffffffffffffffffffffffffffffffffffff16815260200190815260200160002054905082811015610eea576040517f08c379a0000000000000000000000000000000000000000000000000000000008152600401610ee190612c25565b60405180910390fd5b610efe610ef56113dc565b858584036113e4565b600191505092915050565b60008060008084600560009054906101000a900473ffffffffffffffffffffffffffffffffffffffff1673ffffffffffffffffffffffffffffffffffffffff166370a08231336040518263ffffffff1660e01b8152600401610f6b91906129ed565b60206040518083038186803b158015610f8357600080fd5b505afa158015610f97573d6000803e3d6000fd5b505050506040513d601f19601f82011682018060405250810190610fbb9190612765565b1015610ffc576040517f08c379a0000000000000000000000000000000000000000000000000000000008152600401610ff390612b85565b60405180910390fd5b612710600b548661100d9190612f47565b6110179190612da5565b9250826009600082825461102b9190612d4f565b92505081905550612710600c54866110439190612f47565b61104d9190612da5565b915081600e60008282546110619190612d4f565b92505081905550612710600d54866110799190612f47565b6110839190612da5565b90508082846110929190612d4f565b61109c9190612d4f565b856110a79190612fa1565b93506110b3338561232f565b6110c0426000863361248f565b600560009054906101000a900473ffffffffffffffffffffffffffffffffffffffff1673ffffffffffffffffffffffffffffffffffffffff166323b872dd33600760009054906101000a900473ffffffffffffffffffffffffffffffffffffffff16856040518463ffffffff1660e01b815260040161114193929190612a08565b602060405180830381600087803b15801561115b57600080fd5b505af115801561116f573d6000803e3d6000fd5b505050506040513d601f19601f820116820180604052508101906111939190612713565b50600560009054906101000a900473ffffffffffffffffffffffffffffffffffffffff1673ffffffffffffffffffffffffffffffffffffffff166323b872dd33600a60009054906101000a900473ffffffffffffffffffffffffffffffffffffffff16846040518463ffffffff1660e01b815260040161121593929190612a08565b602060405180830381600087803b15801561122f57600080fd5b505af1158015611243573d6000803e3d6000fd5b505050506040513d601f19601f820116820180604052508101906112679190612713565b50600560009054906101000a900473ffffffffffffffffffffffffffffffffffffffff1673ffffffffffffffffffffffffffffffffffffffff166323b872dd333085858a6112b59190612fa1565b6112bf9190612fa1565b6040518463ffffffff1660e01b81526004016112dd93929190612a08565b602060405180830381600087803b1580156112f757600080fd5b505af115801561130b573d6000803e3d6000fd5b505050506040513d601f19601f8201168201806040525081019061132f9190612713565b509193509193565b600061134b6113446113dc565b84846115af565b6001905092915050565b6000600160008473ffffffffffffffffffffffffffffffffffffffff1673ffffffffffffffffffffffffffffffffffffffff16815260200190815260200160002060008373ffffffffffffffffffffffffffffffffffffffff1673ffffffffffffffffffffffffffffffffffffffff16815260200190815260200160002054905092915050565b600033905090565b600073ffffffffffffffffffffffffffffffffffffffff168373ffffffffffffffffffffffffffffffffffffffff161415611454576040517f08c379a000000000000000000000000000000000000000000000000000000000815260040161144b90612be5565b60405180910390fd5b600073ffffffffffffffffffffffffffffffffffffffff168273ffffffffffffffffffffffffffffffffffffffff1614156114c4576040517f08c379a00000000000000000000000000000000000000000000000000000000081526004016114bb90612b05565b60405180910390fd5b80600160008573ffffffffffffffffffffffffffffffffffffffff1673ffffffffffffffffffffffffffffffffffffffff16815260200190815260200160002060008473ffffffffffffffffffffffffffffffffffffffff1673ffffffffffffffffffffffffffffffffffffffff168152602001908152602001600020819055508173ffffffffffffffffffffffffffffffffffffffff168373ffffffffffffffffffffffffffffffffffffffff167f8c5be1e5ebec7d5bd14f71427d1e84f3dd0314c0f7b2291e5b200ac8c7c3b925836040516115a29190612c65565b60405180910390a3505050565b600073ffffffffffffffffffffffffffffffffffffffff168373ffffffffffffffffffffffffffffffffffffffff16141561161f576040517f08c379a000000000000000000000000000000000000000000000000000000000815260040161161690612bc5565b60405180910390fd5b600073ffffffffffffffffffffffffffffffffffffffff168273ffffffffffffffffffffffffffffffffffffffff16141561168f576040517f08c379a000000000000000000000000000000000000000000000000000000000815260040161168690612aa5565b60405180910390fd5b61169a838383612587565b60008060008573ffffffffffffffffffffffffffffffffffffffff1673ffffffffffffffffffffffffffffffffffffffff16815260200190815260200160002054905081811015611720576040517f08c379a000000000000000000000000000000000000000000000000000000000815260040161171790612b25565b60405180910390fd5b8181036000808673ffffffffffffffffffffffffffffffffffffffff1673ffffffffffffffffffffffffffffffffffffffff16815260200190815260200160002081905550816000808573ffffffffffffffffffffffffffffffffffffffff1673ffffffffffffffffffffffffffffffffffffffff16815260200190815260200160002060008282546117b39190612d4f565b925050819055508273ffffffffffffffffffffffffffffffffffffffff168473ffffffffffffffffffffffffffffffffffffffff167fddf252ad1be2c89b69c2b068fc378daa952ba7f163c4a11628f55a4df523b3ef846040516118179190612c65565b60405180910390a361182a84848461258c565b50505050565b600073ffffffffffffffffffffffffffffffffffffffff168273ffffffffffffffffffffffffffffffffffffffff1614156118a0576040517f08c379a000000000000000000000000000000000000000000000000000000000815260040161189790612ba5565b60405180910390fd5b6118ac82600083612587565b60008060008473ffffffffffffffffffffffffffffffffffffffff1673ffffffffffffffffffffffffffffffffffffffff16815260200190815260200160002054905081811015611932576040517f08c379a000000000000000000000000000000000000000000000000000000000815260040161192990612ae5565b60405180910390fd5b8181036000808573ffffffffffffffffffffffffffffffffffffffff1673ffffffffffffffffffffffffffffffffffffffff1681526020019081526020016000208190555081600260008282546119899190612fa1565b92505081905550600073ffffffffffffffffffffffffffffffffffffffff168373ffffffffffffffffffffffffffffffffffffffff167fddf252ad1be2c89b69c2b068fc378daa952ba7f163c4a11628f55a4df523b3ef846040516119ee9190612c65565b60405180910390a3611a028360008461258c565b505050565b6000805b600680549050811015611c8e578373ffffffffffffffffffffffffffffffffffffffff1660068281548110611a69577f4e487b7100000000000000000000000000000000000000000000000000000000600052603260045260246000fd5b906000526020600020906004020160030160009054906101000a900473ffffffffffffffffffffffffffffffffffffffff1673ffffffffffffffffffffffffffffffffffffffff161415611c7b578260068281548110611af2577f4e487b7100000000000000000000000000000000000000000000000000000000600052603260045260246000fd5b90600052602060002090600402016002015483611b0f9190612d4f565b11611bc2574260068281548110611b4f577f4e487b7100000000000000000000000000000000000000000000000000000000600052603260045260246000fd5b90600052602060002090600402016001018190555060068181548110611b9e577f4e487b7100000000000000000000000000000000000000000000000000000000600052603260045260246000fd5b90600052602060002090600402016002015482611bbb9190612d4f565b9150611c7a565b60008360068381548110611bff577f4e487b7100000000000000000000000000000000000000000000000000000000600052603260045260246000fd5b90600052602060002090600402016002015484611c1c9190612d4f565b611c269190612fa1565b90508060068381548110611c63577f4e487b7100000000000000000000000000000000000000000000000000000000600052603260045260246000fd5b906000526020600020906004020160020181905550505b5b8080611c869061308f565b915050611a0b565b50505050565b6000806000905060005b600680549050811015611eff57600060068281548110611ce7577f4e487b7100000000000000000000000000000000000000000000000000000000600052603260045260246000fd5b9060005260206000209060040201600101541115611e1d5760006201518060068381548110611d3f577f4e487b7100000000000000000000000000000000000000000000000000000000600052603260045260246000fd5b90600052602060002090600402016000015460068481548110611d8b577f4e487b7100000000000000000000000000000000000000000000000000000000600052603260045260246000fd5b906000526020600020906004020160010154611da79190612fa1565b611db19190612da5565b905060068281548110611ded577f4e487b7100000000000000000000000000000000000000000000000000000000600052603260045260246000fd5b90600052602060002090600402016002015481611e0a9190612f47565b83611e159190612d4f565b925050611eec565b60006201518060068381548110611e5d577f4e487b7100000000000000000000000000000000000000000000000000000000600052603260045260246000fd5b90600052602060002090600402016000015486611e7a9190612fa1565b611e849190612da5565b905060068281548110611ec0577f4e487b7100000000000000000000000000000000000000000000000000000000600052603260045260246000fd5b90600052602060002090600402016002015481611edd9190612f47565b83611ee89190612d4f565b9250505b8080611ef79061308f565b915050611c9e565b5080915050919050565b60008060068481548110611f46577f4e487b7100000000000000000000000000000000000000000000000000000000600052603260045260246000fd5b90600052602060002090600402016040518060800160405290816000820154815260200160018201548152602001600282015481526020016003820160009054906101000a900473ffffffffffffffffffffffffffffffffffffffff1673ffffffffffffffffffffffffffffffffffffffff1673ffffffffffffffffffffffffffffffffffffffff168152505090506000915060008160200151141561201a57806040015162015180826000015185611fff9190612fa1565b6120099190612da5565b6120139190612f47565b915061204e565b806040015162015180826000015183602001516120379190612fa1565b6120419190612da5565b61204b9190612f47565b91505b5092915050565b60005b60068054905081101561232c576000600682815481106120a1577f4e487b7100000000000000000000000000000000000000000000000000000000600052603260045260246000fd5b906000526020600020906004020160010154111561227757600660016006805490506120cd9190612fa1565b81548110612104577f4e487b7100000000000000000000000000000000000000000000000000000000600052603260045260246000fd5b90600052602060002090600402016006828154811061214c577f4e487b7100000000000000000000000000000000000000000000000000000000600052603260045260246000fd5b90600052602060002090600402016000820154816000015560018201548160010155600282015481600201556003820160009054906101000a900473ffffffffffffffffffffffffffffffffffffffff168160030160006101000a81548173ffffffffffffffffffffffffffffffffffffffff021916908373ffffffffffffffffffffffffffffffffffffffff160217905550905050600680548061221a577f4e487b7100000000000000000000000000000000000000000000000000000000600052603160045260246000fd5b6001900381819060005260206000209060040201600080820160009055600182016000905560028201600090556003820160006101000a81549073ffffffffffffffffffffffffffffffffffffffff021916905550509055612319565b42600682815481106122b2577f4e487b7100000000000000000000000000000000000000000000000000000000600052603260045260246000fd5b906000526020600020906004020160000181905550600060068281548110612303577f4e487b7100000000000000000000000000000000000000000000000000000000600052603260045260246000fd5b9060005260206000209060040201600101819055505b80806123249061308f565b915050612058565b50565b600073ffffffffffffffffffffffffffffffffffffffff168273ffffffffffffffffffffffffffffffffffffffff16141561239f576040517f08c379a000000000000000000000000000000000000000000000000000000000815260040161239690612c45565b60405180910390fd5b6123ab60008383612587565b80600260008282546123bd9190612d4f565b92505081905550806000808473ffffffffffffffffffffffffffffffffffffffff1673ffffffffffffffffffffffffffffffffffffffff16815260200190815260200160002060008282546124129190612d4f565b925050819055508173ffffffffffffffffffffffffffffffffffffffff16600073ffffffffffffffffffffffffffffffffffffffff167fddf252ad1be2c89b69c2b068fc378daa952ba7f163c4a11628f55a4df523b3ef836040516124779190612c65565b60405180910390a361248b6000838361258c565b5050565b612497612591565b84816000018181525050838160200181815250508281604001818152505081816060019073ffffffffffffffffffffffffffffffffffffffff16908173ffffffffffffffffffffffffffffffffffffffff1681525050600681908060018154018082558091505060019003906000526020600020906004020160009091909190915060008201518160000155602082015181600101556040820151816002015560608201518160030160006101000a81548173ffffffffffffffffffffffffffffffffffffffff021916908373ffffffffffffffffffffffffffffffffffffffff16021790555050505050505050565b505050565b505050565b6040518060800160405280600081526020016000815260200160008152602001600073ffffffffffffffffffffffffffffffffffffffff1681525090565b6000813590506125de81613589565b92915050565b6000815190506125f3816135a0565b92915050565b600081359050612608816135b7565b92915050565b60008151905061261d816135b7565b92915050565b60006020828403121561263557600080fd5b6000612643848285016125cf565b91505092915050565b6000806040838503121561265f57600080fd5b600061266d858286016125cf565b925050602061267e858286016125cf565b9150509250929050565b60008060006060848603121561269d57600080fd5b60006126ab868287016125cf565b93505060206126bc868287016125cf565b92505060406126cd868287016125f9565b9150509250925092565b600080604083850312156126ea57600080fd5b60006126f8858286016125cf565b9250506020612709858286016125f9565b9150509250929050565b60006020828403121561272557600080fd5b6000612733848285016125e4565b91505092915050565b60006020828403121561274e57600080fd5b600061275c848285016125f9565b91505092915050565b60006020828403121561277757600080fd5b60006127858482850161260e565b91505092915050565b61279781612fd5565b82525050565b6127a681612fe7565b82525050565b60006127b782612d33565b6127c18185612d3e565b93506127d181856020860161302a565b6127da81613165565b840191505092915050565b60006127f2602383612d3e565b91506127fd82613183565b604082019050919050565b6000612815601783612d3e565b9150612820826131d2565b602082019050919050565b6000612838602283612d3e565b9150612843826131fb565b604082019050919050565b600061285b602283612d3e565b91506128668261324a565b604082019050919050565b600061287e602683612d3e565b915061288982613299565b604082019050919050565b60006128a1603983612d3e565b91506128ac826132e8565b604082019050919050565b60006128c4602883612d3e565b91506128cf82613337565b604082019050919050565b60006128e7602583612d3e565b91506128f282613386565b604082019050919050565b600061290a602183612d3e565b9150612915826133d5565b604082019050919050565b600061292d602583612d3e565b915061293882613424565b604082019050919050565b6000612950602483612d3e565b915061295b82613473565b604082019050919050565b6000612973602883612d3e565b915061297e826134c2565b604082019050919050565b6000612996602583612d3e565b91506129a182613511565b604082019050919050565b60006129b9601f83612d3e565b91506129c482613560565b602082019050919050565b6129d881613013565b82525050565b6129e78161301d565b82525050565b6000602082019050612a02600083018461278e565b92915050565b6000606082019050612a1d600083018661278e565b612a2a602083018561278e565b612a3760408301846129cf565b949350505050565b6000604082019050612a54600083018561278e565b612a6160208301846129cf565b9392505050565b6000602082019050612a7d600083018461279d565b92915050565b60006020820190508181036000830152612a9d81846127ac565b905092915050565b60006020820190508181036000830152612abe816127e5565b9050919050565b60006020820190508181036000830152612ade81612808565b9050919050565b60006020820190508181036000830152612afe8161282b565b9050919050565b60006020820190508181036000830152612b1e8161284e565b9050919050565b60006020820190508181036000830152612b3e81612871565b9050919050565b60006020820190508181036000830152612b5e81612894565b9050919050565b60006020820190508181036000830152612b7e816128b7565b9050919050565b60006020820190508181036000830152612b9e816128da565b9050919050565b60006020820190508181036000830152612bbe816128fd565b9050919050565b60006020820190508181036000830152612bde81612920565b9050919050565b60006020820190508181036000830152612bfe81612943565b9050919050565b60006020820190508181036000830152612c1e81612966565b9050919050565b60006020820190508181036000830152612c3e81612989565b9050919050565b60006020820190508181036000830152612c5e816129ac565b9050919050565b6000602082019050612c7a60008301846129cf565b92915050565b6000608082019050612c9560008301876129cf565b612ca260208301866129cf565b612caf60408301856129cf565b612cbc60608301846129cf565b95945050505050565b600060a082019050612cda60008301886129cf565b612ce760208301876129cf565b612cf460408301866129cf565b612d0160608301856129cf565b612d0e60808301846129cf565b9695505050505050565b6000602082019050612d2d60008301846129de565b92915050565b600081519050919050565b600082825260208201905092915050565b6000612d5a82613013565b9150612d6583613013565b9250827fffffffffffffffffffffffffffffffffffffffffffffffffffffffffffffffff03821115612d9a57612d996130d8565b5b828201905092915050565b6000612db082613013565b9150612dbb83613013565b925082612dcb57612dca613107565b5b828204905092915050565b6000808291508390505b6001851115612e2057808604811115612dfc57612dfb6130d8565b5b6001851615612e0b5780820291505b8081029050612e1985613176565b9450612de0565b94509492505050565b6000612e3482613013565b9150612e3f8361301d565b9250612e6c7fffffffffffffffffffffffffffffffffffffffffffffffffffffffffffffffff8484612e74565b905092915050565b600082612e845760019050612f40565b81612e925760009050612f40565b8160018114612ea85760028114612eb257612ee1565b6001915050612f40565b60ff841115612ec457612ec36130d8565b5b8360020a915084821115612edb57612eda6130d8565b5b50612f40565b5060208310610133831016604e8410600b8410161715612f165782820a905083811115612f1157612f106130d8565b5b612f40565b612f238484846001612dd6565b92509050818404811115612f3a57612f396130d8565b5b81810290505b9392505050565b6000612f5282613013565b9150612f5d83613013565b9250817fffffffffffffffffffffffffffffffffffffffffffffffffffffffffffffffff0483118215151615612f9657612f956130d8565b5b828202905092915050565b6000612fac82613013565b9150612fb783613013565b925082821015612fca57612fc96130d8565b5b828203905092915050565b6000612fe082612ff3565b9050919050565b60008115159050919050565b600073ffffffffffffffffffffffffffffffffffffffff82169050919050565b6000819050919050565b600060ff82169050919050565b60005b8381101561304857808201518184015260208101905061302d565b83811115613057576000848401525b50505050565b6000600282049050600182168061307557607f821691505b6020821081141561308957613088613136565b5b50919050565b600061309a82613013565b91507fffffffffffffffffffffffffffffffffffffffffffffffffffffffffffffffff8214156130cd576130cc6130d8565b5b600182019050919050565b7f4e487b7100000000000000000000000000000000000000000000000000000000600052601160045260246000fd5b7f4e487b7100000000000000000000000000000000000000000000000000000000600052601260045260246000fd5b7f4e487b7100000000000000000000000000000000000000000000000000000000600052602260045260246000fd5b6000601f19601f8301169050919050565b60008160011c9050919050565b7f45524332303a207472616e7366657220746f20746865207a65726f206164647260008201527f6573730000000000000000000000000000000000000000000000000000000000602082015250565b7f496e73756666696369656e74207374616b656420564c52000000000000000000600082015250565b7f45524332303a206275726e20616d6f756e7420657863656564732062616c616e60008201527f6365000000000000000000000000000000000000000000000000000000000000602082015250565b7f45524332303a20617070726f766520746f20746865207a65726f20616464726560008201527f7373000000000000000000000000000000000000000000000000000000000000602082015250565b7f45524332303a207472616e7366657220616d6f756e742065786365656473206260008201527f616c616e63650000000000000000000000000000000000000000000000000000602082015250565b7f4f6e6c792064657369676e61746564206469737472696275746f722063616e2060008201527f6d616b652072657761726420646973747269627574696f6e7300000000000000602082015250565b7f45524332303a207472616e7366657220616d6f756e742065786365656473206160008201527f6c6c6f77616e6365000000000000000000000000000000000000000000000000602082015250565b7f496e73756666696369656e7420656e746572707269736520746f6b656e20626160008201527f6c616e6365000000000000000000000000000000000000000000000000000000602082015250565b7f45524332303a206275726e2066726f6d20746865207a65726f2061646472657360008201527f7300000000000000000000000000000000000000000000000000000000000000602082015250565b7f45524332303a207472616e736665722066726f6d20746865207a65726f20616460008201527f6472657373000000000000000000000000000000000000000000000000000000602082015250565b7f45524332303a20617070726f76652066726f6d20746865207a65726f2061646460008201527f7265737300000000000000000000000000000000000000000000000000000000602082015250565b7f43616e6e6f742064697374726962757465206d6f726520746f6b656e7320746860008201527f616e206f776e6564000000000000000000000000000000000000000000000000602082015250565b7f45524332303a2064656372656173656420616c6c6f77616e63652062656c6f7760008201527f207a65726f000000000000000000000000000000000000000000000000000000602082015250565b7f45524332303a206d696e7420746f20746865207a65726f206164647265737300600082015250565b61359281612fd5565b811461359d57600080fd5b50565b6135a981612fe7565b81146135b457600080fd5b50565b6135c081613013565b81146135cb57600080fd5b5056fea2646970667358221220a782e1c503573682d08af7f20fb24ca1a2635a99deb9945647123f25e858990164736f6c63430008040033",
  "devdoc": {
    "kind": "dev",
    "methods": {
      "allowance(address,address)": {
        "details": "See {IERC20-allowance}."
      },
      "approve(address,uint256)": {
        "details": "See {IERC20-approve}. Requirements: - `spender` cannot be the zero address."
      },
      "balanceOf(address)": {
        "details": "See {IERC20-balanceOf}."
      },
      "decimals()": {
        "details": "Returns the number of decimals used to get its user representation. For example, if `decimals` equals `2`, a balance of `505` tokens should be displayed to a user as `5.05` (`505 / 10 ** 2`). Tokens usually opt for a value of 18, imitating the relationship between Ether and Wei. This is the value {ERC20} uses, unless this function is overridden; NOTE: This information is only used for _display_ purposes: it in no way affects any of the arithmetic of the contract, including {IERC20-balanceOf} and {IERC20-transfer}."
      },
      "decreaseAllowance(address,uint256)": {
        "details": "Atomically decreases the allowance granted to `spender` by the caller. This is an alternative to {approve} that can be used as a mitigation for problems described in {IERC20-approve}. Emits an {Approval} event indicating the updated allowance. Requirements: - `spender` cannot be the zero address. - `spender` must have allowance for the caller of at least `subtractedValue`."
      },
      "increaseAllowance(address,uint256)": {
        "details": "Atomically increases the allowance granted to `spender` by the caller. This is an alternative to {approve} that can be used as a mitigation for problems described in {IERC20-approve}. Emits an {Approval} event indicating the updated allowance. Requirements: - `spender` cannot be the zero address."
      },
      "name()": {
        "details": "Returns the name of the token."
      },
      "symbol()": {
        "details": "Returns the symbol of the token, usually a shorter version of the name."
      },
      "totalSupply()": {
        "details": "See {IERC20-totalSupply}."
      },
      "transfer(address,uint256)": {
        "details": "See {IERC20-transfer}. Requirements: - `recipient` cannot be the zero address. - the caller must have a balance of at least `amount`."
      },
      "transferFrom(address,address,uint256)": {
        "details": "See {IERC20-transferFrom}. Emits an {Approval} event indicating the updated allowance. This is not required by the EIP. See the note at the beginning of {ERC20}. Requirements: - `sender` and `recipient` cannot be the zero address. - `sender` must have a balance of at least `amount`. - the caller must have allowance for ``sender``'s tokens of at least `amount`."
      }
    },
    "version": 1
  },
  "userdoc": {
    "kind": "user",
    "methods": {},
    "version": 1
  },
  "storageLayout": {
    "storage": [
      {
        "astId": 15,
        "contract": "contracts/EvlrStaker.sol:EvlrStaker",
        "label": "_balances",
        "offset": 0,
        "slot": "0",
        "type": "t_mapping(t_address,t_uint256)"
      },
      {
        "astId": 21,
        "contract": "contracts/EvlrStaker.sol:EvlrStaker",
        "label": "_allowances",
        "offset": 0,
        "slot": "1",
        "type": "t_mapping(t_address,t_mapping(t_address,t_uint256))"
      },
      {
        "astId": 23,
        "contract": "contracts/EvlrStaker.sol:EvlrStaker",
        "label": "_totalSupply",
        "offset": 0,
        "slot": "2",
        "type": "t_uint256"
      },
      {
        "astId": 25,
        "contract": "contracts/EvlrStaker.sol:EvlrStaker",
        "label": "_name",
        "offset": 0,
        "slot": "3",
        "type": "t_string_storage"
      },
      {
        "astId": 27,
        "contract": "contracts/EvlrStaker.sol:EvlrStaker",
        "label": "_symbol",
        "offset": 0,
        "slot": "4",
        "type": "t_string_storage"
      },
      {
        "astId": 682,
        "contract": "contracts/EvlrStaker.sol:EvlrStaker",
        "label": "eVlrContract",
        "offset": 0,
        "slot": "5",
        "type": "t_contract(ERC20)545"
      },
      {
        "astId": 686,
        "contract": "contracts/EvlrStaker.sol:EvlrStaker",
        "label": "stakes",
        "offset": 0,
        "slot": "6",
        "type": "t_array(t_struct(StakerBag)766_storage)dyn_storage"
      },
      {
        "astId": 688,
        "contract": "contracts/EvlrStaker.sol:EvlrStaker",
        "label": "charityBagAddress",
        "offset": 0,
        "slot": "7",
        "type": "t_address"
      },
      {
        "astId": 690,
        "contract": "contracts/EvlrStaker.sol:EvlrStaker",
        "label": "distributor",
        "offset": 0,
        "slot": "8",
        "type": "t_address"
      },
      {
        "astId": 692,
        "contract": "contracts/EvlrStaker.sol:EvlrStaker",
        "label": "stakingRewardsBag",
        "offset": 0,
        "slot": "9",
        "type": "t_uint256"
      },
      {
        "astId": 695,
        "contract": "contracts/EvlrStaker.sol:EvlrStaker",
        "label": "burnAddress",
        "offset": 0,
        "slot": "10",
        "type": "t_address"
      },
      {
        "astId": 697,
        "contract": "contracts/EvlrStaker.sol:EvlrStaker",
        "label": "stakingFee",
        "offset": 0,
        "slot": "11",
        "type": "t_uint256"
      },
      {
        "astId": 699,
        "contract": "contracts/EvlrStaker.sol:EvlrStaker",
        "label": "charityFee",
        "offset": 0,
        "slot": "12",
        "type": "t_uint256"
      },
      {
        "astId": 701,
        "contract": "contracts/EvlrStaker.sol:EvlrStaker",
        "label": "burnFee",
        "offset": 0,
        "slot": "13",
        "type": "t_uint256"
      },
      {
        "astId": 703,
        "contract": "contracts/EvlrStaker.sol:EvlrStaker",
        "label": "totalCharityCollected",
        "offset": 0,
        "slot": "14",
        "type": "t_uint256"
      }
    ],
    "types": {
      "t_address": {
        "encoding": "inplace",
        "label": "address",
        "numberOfBytes": "20"
      },
      "t_array(t_struct(StakerBag)766_storage)dyn_storage": {
        "base": "t_struct(StakerBag)766_storage",
        "encoding": "dynamic_array",
        "label": "struct EvlrStaker.StakerBag[]",
        "numberOfBytes": "32"
      },
      "t_contract(ERC20)545": {
        "encoding": "inplace",
        "label": "contract ERC20",
        "numberOfBytes": "20"
      },
      "t_mapping(t_address,t_mapping(t_address,t_uint256))": {
        "encoding": "mapping",
        "key": "t_address",
        "label": "mapping(address => mapping(address => uint256))",
        "numberOfBytes": "32",
        "value": "t_mapping(t_address,t_uint256)"
      },
      "t_mapping(t_address,t_uint256)": {
        "encoding": "mapping",
        "key": "t_address",
        "label": "mapping(address => uint256)",
        "numberOfBytes": "32",
        "value": "t_uint256"
      },
      "t_string_storage": {
        "encoding": "bytes",
        "label": "string",
        "numberOfBytes": "32"
      },
      "t_struct(StakerBag)766_storage": {
        "encoding": "inplace",
        "label": "struct EvlrStaker.StakerBag",
        "members": [
          {
            "astId": 759,
            "contract": "contracts/EvlrStaker.sol:EvlrStaker",
            "label": "startTime",
            "offset": 0,
            "slot": "0",
            "type": "t_uint256"
          },
          {
            "astId": 761,
            "contract": "contracts/EvlrStaker.sol:EvlrStaker",
            "label": "stopTime",
            "offset": 0,
            "slot": "1",
            "type": "t_uint256"
          },
          {
            "astId": 763,
            "contract": "contracts/EvlrStaker.sol:EvlrStaker",
            "label": "stakedTokens",
            "offset": 0,
            "slot": "2",
            "type": "t_uint256"
          },
          {
            "astId": 765,
            "contract": "contracts/EvlrStaker.sol:EvlrStaker",
            "label": "ownerAddress",
            "offset": 0,
            "slot": "3",
            "type": "t_address"
          }
        ],
        "numberOfBytes": "128"
      },
      "t_uint256": {
        "encoding": "inplace",
        "label": "uint256",
        "numberOfBytes": "32"
      }
    }
  }
}